:020000040800F2
:2000000000200020C94F00082D4F0008314F0008354F0008394F00083D4F000800000000C4
:2000200000000000000000000000000051380008414F000800000000E13800082539000810
:20004000115000081150000811500008115000081150000811500008115000081150000858
:20006000115000081150000811500008115000081150000811500008454F00081150000805
:200080001150000811500008115000080000000000000000000000000000000011500008BC
:2000A0001150000811500008514F00081150000811500008115000081150000811500008B9
:2000C00011500008000000000000000011500008115000085D4F000811500008115000085F
:2000E0001150000811500008115000080000000000000000000000000000000000000000C5
:2001000000000000000000000000000000000000000000000000000011500008694F0008B6
:200120000000000000000000000000000000000000000000000000000000000000000000BF
:2001400000000000000000000000000000000000000000000000000000000000000000009F
:2001600000000000000000000000000000000000000000000000000000000000000000007F
:2001800000000000000000000000000000000000000000000000000000000000000000005F
:2001A00000000000000000000000000000000000000000000000000000000000000000003F
:2001C0000000000000000000000000005FF808F110B5054C237833B9044B13B10448AFF331
:2001E00000800123237010BD10000020000000007450000808B5034B1BB103490348AFF3EF
:20020000008008BD00000000140000207450000808B5032000F01AF8002004F049FE04F068
:20022000C7FC002008BD00BF034A044B11681B780B441360704700BFB80D00200000002072
:20024000014B1868704700BFB80D00204FF6FF01064A0002D36800F4E0600B4043F0BF63D1
:2002600043F400330343D360704700BF00ED00E0184B30B4DB68C3F30223C3F10705042D02
:2002800003F1040428BF0425062C19D94FF0FF34033B9C4022EA04044FF0FF32AA4021EA29
:2002A000020101FA03F2224312010028D2B20ADB00F1604000F5614080F8002330BC7047DD
:2002C00000242346E8E7044B00F00F0003441A7630BC704700ED00E0FCEC00E0012300F051
:2002E0001F01034A40098B4042F82030704700BF00E100E050B30246F0B4D0E901360024B9
:2003000001253343D6680068334311491669114F014433435669A7FB017133439669D769A9
:20032000334306680909890026F47F563B4326F03006116408493343D16303602046946355
:2003400082F8204082F82150F0BC704701207047F8FFFDBFCDCCCCCC00000240F0B590F84A
:200360002040012C32D0012490F8215080F82040A54225D100264FF0020E046886632668C3
:20038000076CD0F83CC0BD4026F00106476880F821E02660CCF804506360C36A102F0BBF4D
:2003A000A260A160E160E2609BB1236843F00E03236000232268184642F001022260F0BDAA
:2003C0000022022380F820201846F0BD02231846F0BD236823F004032360236843F00A03F0
:2003E0002360E6E738B590F82130022B04D0042201248263204638BD03681D491A688B423B
:2004000022F00E021A601A6822F001021A6021D0184A93421CD0143293421DD014329342F8
:200420001DD0143293421DD0143293420CBF4FF4000000000000000000000000000000009E
:20044000000000000000000000000000204638BD1023F0E70123EEE74FF48073EBE74FF4F3
:200460008053E8E74FF48033E5E71446C2E700BF080002401C00024000000240042270B422
:20048000D0E90F61346803688A4022421D681FD06A071DD51A68910603D41A6822F004029D
:2004A0001A603F4A93425CD01432934261D01432934268D0143293426BD0143293425DD0FB
:2004C000143293420CBF4FF480034FF0806349E002228A40224222D0AA0720D51A68910622
:2004E00006D401211A6822F00A021A6080F821102B4A93422BD01432934242D014329342B0
:2005000044D01432934236D01432934244D0143293420CBF4FF400134FF0007318E0082267
:200520008A4022421BD02A0719D5012200251C6802FA01F124F00E041C60036B7160826303
:2005400080F8212080F820504BB170BC184702230021144C826A636080F820103AB970BC57
:20056000704704230F49C26A4B60002AF7D070BC10474023F6E74FF40053E9E74FF480236E
:20058000F0E72023E4E74FF48063EBE74FF40073DEE74FF48043E5E74FF40033D8E700BF3D
:2005A00008000240000002402DE9F04F4FF0000883B04446DFF8C0C1694EDFF8C0E102E0ED
:2005C0000134102C78D001230A68A3401A409342F6D14D68122D00F09C807ED8022D00F07E
:2005E000948074D9032D00F08D80112D02D1CB6803F10408FF2A62D882460368A5004FF0AF
:200600000F0909FA05FB23EA0B0308FA05F52B43CAF80030D1F804A01AF0805FD0D0514FB2
:2006200024F00305BB6905F1804543F00103BB61BB6905F5803503F00103019304F0030B0C
:20064000019B4FEA8B0BAB6809FA0BF9604523EA09030FD0704560D0434FB84278D0434F2D
:20066000B8420CBF4FF003094FF0040909FA0BFB43EA0B03AB6033681AF4803F14BF13433E
:200680009343336073681AF4003F14BF134393437360B3681AF4801F14BF13439343B3601D
:2006A000F3681AF4001F04F1010414BF1A4323EA0202102CF26086D103B0BDE8F08F04F1C6
:2006C0008045083D4368AD0000F1040A97E7A5B1012D8FD1D1F80C808CE7254FBD420CD040
:2006E00029D9244FBD4208D007F58037BD4204D0DFF88C904D457FF47DAF8D68A5B94FF072
:20070000040877E74FF0000874E7CB6803F1080870E7CB6803F10C086CE74FF0010909FA65
:200720000BFB43EA0B03A5E7012D0CBF036143614FF008085EE7DFF84C904D45DDD009F567
:2007400080394D457FF456AF8D68002DD7D0EBE74FF0020909FA0BFB43EA0B038AE700BF7D
:2007600000040140001002400010014000140140000021100000311000080140000C014034
:20078000000022100000111002B90904016170472DE9F041036882B0DD07044630D5AB491A
:2007A0004A6802F00C02042A00F0DA804A6802F00C02082A00F0D0806368B3F5803F00F0C9
:2007C0000F81002B00F02781B3F5A02F00F0B5819E4B1A6822F480321A601A6822F4802242
:2007E0001A60FFF72DFD994D064605E0FFF728FD801B642800F20B812B689A03F6D5236802
:200800009F0728D5914A516811F00C0F00F0B680516801F00C01082900F0AC802369002BA4
:2008200000F0418101228A4B884D1A60FFF708FD064605E0FFF704FD801B022800F2E7807E
:200840002B689807F6D52B68626923F0F80343EAC2032B6023681A0722D5A369002B00F0E8
:20086000988001227B4B794D1A60FFF7E9FC064605E0FFF7E5FC801B022800F2C8806B6A80
:200880009B07F6D5744B754A1B68A2FB03235B0A019300BF019B5A1E0192002BF9D1236848
:2008A0005D0739D5694BDA69D00040F1828000256B4B1A68D10540F19980E368012B0FD0F9
:2008C000002B00F0D180052B604B1A6A00F0FC8022F001021A621A6A22F004021A6204E054
:2008E0005A4A136A43F001031362FFF7A9FC574E804641F2883706E0FFF7A2FCA0EB080026
:20090000B84200F28480336A9B07F5D525B14F4AD36923F08053D361E269CAB14B4D6968EA
:2009200001F00C01082930D0022A4FF000014D4A00F0D2801160FFF783FC2C46054604E0BC
:20094000FFF77EFC401B022861D823689B01F7D4002002B0BDE8F0814A68D0037FF52CAFBB
:200960003A4A126891037FF54BAF6268002A7FF447AF0AE05268D6033FF550AF334A126873
:20098000950721D52269012A1ED0012002B0BDE8F081304A2D4D1360FFF752FC064604E05D
:2009A000FFF74EFC801B022831D86B6A9F07F7D475E7DA69012542F08052DA61DB6903F0A8
:2009C00080530093009B73E7204960690A6822F0F80242EAC0020A601A077FF561AF3CE7EC
:2009E0001A4A136843F480331360FAE61A681E4642F480721A60FFF723FC07463368DA0577
:200A00003FF55BAFFFF71CFCC01B6428F6D9032002B0BDE8F08103F1804303F504331A6801
:200A20001D4622F480321A601A6822F480221A60FFF706FC064604E0FFF702FC801B64281A
:200A4000E5D82B689B03F7D4D9E600BF0010024000004242800442420C000020D34D6210C3
:200A6000007000406000424203F1804303F504331A6A1E4622F001021A621A6A41F288380C
:200A800022F004021A62FFF7DBFB074604E0FFF7D7FBC01B4045BAD8336A9807F7D4002DD7
:200AA0003FF43AAF33E72B4A2B4D1360FFF7C8FB064604E0FFF7C4FB801B0228A7D82B682B
:200AC0009907F7D42368C6E642F004021A621A6A42F001021A6208E71160FFF7B1FB06463D
:200AE00004E0FFF7ADFB801B022890D82B689901F7D4226AB2F5803F05D1EB6AA16823F016
:200B00000F030B43EB620125134B606A5968024321F4741111480A435A6005601C46FFF71D
:200B20008FFB054605E0FFF78BFB401B02283FF66EAF23689A01F6D50AE703F18043A3F577
:200B40003C331A6842F480221A601A6842F480321A6046E600004242001002406000424288
:200B6000F0B5036889B09D0704460FD5580704D555494A6842F4E0624A6019076DD45249B4
:200B8000A0684A6822F0F00202434A60DA0726D560684D4B01281B6800F08980022800F0AD
:200BA0008A809D0740F18A80474D41F288376B6823F0030318436860FFF742FB636806466D
:200BC000012B55D0022B05D16BE0FFF739FB801BB84276D86B6813F00C0FF6D123685907C6
:200BE00006D53949E0684A6822F4E06202434A601A0707D5344A2169536823F4605343EAA0
:200C0000C10353606D46314B03F110040FCB85E80F0094E80F0008AC04E90F002A494A6870
:200C200002F00C03082B35D1C2F38343234413F8200CD30322D4264B03FB00F3224A25485A
:200C400052682549C2F30312825C0020D3400B6004F02EF9002009B0F0BD1B494A6842F439
:200C600060524A608BE7FFF7EBFA801BB84228D86B6803F00C03042BF5D1AFE7CA6A174B40
:200C800002F00F0203FB00F3224412F8102CB3FBF2F3D3E7114BD1E7FFF7D2FA801BB842FC
:200CA0000FD86B6803F00C03082BF5D196E79F033FF57AAFCFE79E013FF576AF012009B07B
:200CC000F0BD032009B0F0BD001002408C50000800093D00C05000080C00002000127A0092
:200CE000044B05495B68054AC3F30223CB5C1068D840704700100240D05000080C00002056
:200D0000044B05495B68054AC3F3C223CB5C1068D840704700100240D05000080C00002075
:200D20000F2210B400240B4B02605A6802F0030242605A6802F0F00282605A6802F4E06205
:200D4000C2605B68DB0803F4E06303610C6010BC704700BF00100240A0B390F83D3070B5C0
:200D600003F0FF02044643B302232268354E84F83D30B2421368A569E068616824D0B2F1FF
:200D8000804F37D0A6F59436B24249D006F58066B24245D006F59C36B24219D006F5806696
:200DA000B24215D006F58066B24211D023F080032B431360D062916216E080F83C2003F04B
:200DC0001FFFD1E701207047A66823F070033343266923F44073334323F080032B43136015
:200DE000D06291626369136301230020536184F83D3070BDA66823F070033343266923F4CE
:200E00004073334323F080032B431360D06291620D4B9A42E6D003F580639A42E4D1E1E7EF
:200E2000A66823F070033343266923F440733343064E23F080032B43B2421360D0629162F5
:200E4000D0D0E5E7002C01400044014000400140022210B401240346016880F83D200A68AD
:200E6000002022430A6083F83D4010BC704700BF0346022041F211111A6883F83D00106AD5
:200E8000084208D140F24441106A084203D1116821F0010111600122002083F83D20704711
:200EA00003680020DA6842F00102DA601A6842F001021A60704700BF704700BFA0B390F8FE
:200EC0003D3070B503F0FF02044643B302232268354E84F83D30B2421368A569E0686168A3
:200EE00024D0B2F1804F37D0A6F59436B24249D006F58066B24245D006F59C36B24219D07F
:200F000006F58066B24215D006F58066B24211D023F080032B431360D062916216E080F857
:200F20003C20FFF7C9FFD1E701207047A66823F070033343266923F44073334323F0800398
:200F40002B431360D06291626369136301230020536184F83D3070BDA66823F07003334331
:200F6000266923F44073334323F080032B431360D06291620D4B9A42E6D003F580639A4265
:200F8000E4D1E1E7A66823F070033343266923F440733343064E23F080032B43B24213603C
:200FA000D0629162D0D0E5E7002C014000440140004001400122036802FA01F11A6A0F48D6
:200FC00022EA01021A621A6A834241EA020119620AD00B4A934207D002F58062934203D038
:200FE00002F58062934203D15A6C42F400425A641A68002042F001021A607047002C0140FE
:00000001FF
