:020000040800F2
:1000000000200020C94F00082D4F0008314F000884
:10001000354F0008394F00083D4F00080000000030
:10002000000000000000000000000000513800083F
:10003000414F000800000000E138000825390008A1
:10004000115000081150000811500008115000080C
:1000500011500008115000081150000811500008FC
:1000600011500008115000081150000811500008EC
:100070001150000811500008454F000811500008A9
:100080001150000811500008115000080000000035
:1000900000000000000000000000000011500008F7
:1000A0001150000811500008514F0008115000086D
:1000B000115000081150000811500008115000089C
:1000C000115000080000000000000000115000085E
:1000D000115000085D4F0008115000081150000831
:1000E00011500008115000081150000800000000D5
:1000F0000000000000000000000000000000000000
:1001000000000000000000000000000000000000EF
:10011000000000000000000011500008694F0008B6
:1001200000000000000000000000000000000000CF
:1001300000000000000000000000000000000000BF
:1001400000000000000000000000000000000000AF
:10015000000000000000000000000000000000009F
:10016000000000000000000000000000000000008F
:10017000000000000000000000000000000000007F
:10018000000000000000000000000000000000006F
:10019000000000000000000000000000000000005F
:1001A000000000000000000000000000000000004F
:1001B000000000000000000000000000000000003F
:1001C0000000000000000000000000005FF808F1DF
:1001D00010B5054C237833B9044B13B10448AFF381
:1001E00000800123237010BD1000002000000000DB
:1001F0007450000808B5034B1BB103490348AFF323
:10020000008008BD000000001400002074500008A9
:1002100008B5032000F01AF8002004F049FE04F0AD
:10022000C7FC002008BD00BF034A044B11681B78BF
:100230000B441360704700BFB80D00200000002081
:10024000014B1868704700BFB80D00204FF6FF0142
:10025000064A0002D36800F4E0600B4043F0BF633D
:1002600043F400330343D360704700BF00ED00E068
:10027000184B30B4DB68C3F30223C3F10705042D28
:1002800003F1040428BF0425062C19D94FF0FF34CC
:10029000033B9C4022EA04044FF0FF32AA4021EACB
:1002A000020101FA03F2224312010028D2B20ADB52
:1002B00000F1604000F5614080F8002330BC7047D9
:1002C00000242346E8E7044B00F00F0003441A76AD
:1002D00030BC704700ED00E0FCEC00E0012300F0D2
:1002E0001F01034A40098B4042F82030704700BF8D
:1002F00000E100E050B30246F0B4D0E9013600243A
:1003000001253343D6680068334311491669114FFC
:10031000014433435669A7FB017133439669D7699A
:10032000334306680909890026F47F563B4326F0CB
:100330003006116408493343D16303602046946357
:1003400082F8204082F82150F0BC704701207047AD
:10035000F8FFFDBFCDCCCCCC00000240F0B590F84A
:100360002040012C32D0012490F8215080F8204008
:10037000A54225D100264FF0020E04688663266848
:10038000076CD0F83CC0BD4026F00106476880F8F5
:1003900021E02660CCF804506360C36A102F0BBFC5
:1003A000A260A160E160E2609BB1236843F00E03AC
:1003B000236000232268184642F001022260F0BD4B
:1003C0000022022380F820201846F0BD02231846A0
:1003D000F0BD236823F004032360236843F00A037D
:1003E0002360E6E738B590F82130022B04D00422D0
:1003F00001248263204638BD03681D491A688B4278
:1004000022F00E021A601A6822F001021A6021D04E
:10041000184A93421CD0143293421DD01432934296
:100420001DD0143293421DD0143293420CBF4FF4AE
:1004300080134FF08073012100240F4D426B6B60DD
:1004400080F8211080F820407AB19047204638BDCE
:100450001023F0E70123EEE74FF48073EBE74FF44E
:100460008053E8E74FF48033E5E71446C2E700BF66
:10047000080002401C00024000000240042270B448
:10048000D0E90F61346803688A4022421D681FD09A
:100490006A071DD51A68910603D41A6822F004026F
:1004A0001A603F4A93425CD01432934261D01432B6
:1004B000934268D0143293426BD0143293425DD091
:1004C000143293420CBF4FF480034FF0806349E035
:1004D00002228A40224222D0AA0720D51A68910619
:1004E00006D401211A6822F00A021A6080F821104D
:1004F0002B4A93422BD01432934242D0143293426F
:1005000044D01432934236D01432934244D0143241
:1005100093420CBF4FF400134FF0007318E0082211
:100520008A4022421BD02A0719D5012200251C68C7
:1005300002FA01F124F00E041C60036B7160826307
:1005400080F8212080F820504BB170BC184702235E
:100550000021144C826A636080F820103AB970BCA4
:10056000704704230F49C26A4B60002AF7D070BC61
:1005700010474023F6E74FF40053E9E74FF4802398
:10058000F0E72023E4E74FF48063EBE74FF40073D8
:10059000DEE74FF48043E5E74FF40033D8E700BFD0
:1005A00008000240000002402DE9F04F4FF0000823
:1005B00083B04446DFF8C0C1694EDFF8C0E102E015
:1005C0000134102C78D001230A68A3401A409342CA
:1005D000F6D14D68122D00F09C807ED8022D00F0DF
:1005E000948074D9032D00F08D80112D02D1CB6839
:1005F00003F10408FF2A62D882460368A5004FF081
:100600000F0909FA05FB23EA0B0308FA05F52B434A
:10061000CAF80030D1F804A01AF0805FD0D0514F52
:1006200024F00305BB6905F1804543F00103BB617C
:10063000BB6905F5803503F00103019304F0030B5A
:10064000019B4FEA8B0BAB6809FA0BF9604523EA73
:1006500009030FD0704560D0434FB84278D0434F64
:10066000B8420CBF4FF003094FF0040909FA0BFB25
:1006700043EA0B03AB6033681AF4803F14BF1343A3
:100680009343336073681AF4003F14BF13439343DA
:100690007360B3681AF4801F14BF13439343B360AD
:1006A000F3681AF4001F04F1010414BF1A4323EA8B
:1006B0000202102CF26086D103B0BDE8F08F04F185
:1006C0008045083D4368AD0000F1040A97E7A5B1F5
:1006D000012D8FD1D1F80C808CE7254FBD420CD075
:1006E00029D9244FBD4208D007F58037BD4204D038
:1006F000DFF88C904D457FF47DAF8D68A5B94FF044
:10070000040877E74FF0000874E7CB6803F10808A6
:1007100070E7CB6803F10C086CE74FF0010909FAA8
:100720000BFB43EA0B03A5E7012D0CBF03614361FB
:100730004FF008085EE7DFF84C904D45DDD009F535
:1007400080394D457FF456AF8D68002DD7D0EBE74B
:100750004FF0020909FA0BFB43EA0B038AE700BFDB
:10076000000401400010024000100140001401404C
:10077000000021100000311000080140000C014071
:10078000000022100000111002B909040161704735
:100790002DE9F041036882B0DD07044630D5AB494E
:1007A0004A6802F00C02042A00F0DA804A6802F07B
:1007B0000C02082A00F0D0806368B3F5803F00F097
:1007C0000F81002B00F02781B3F5A02F00F0B58139
:1007D0009E4B1A6822F480321A601A6822F4802232
:1007E0001A60FFF72DFD994D064605E0FFF728FD3D
:1007F000801B642800F20B812B689A03F6D52368CE
:100800009F0728D5914A516811F00C0F00F0B6806F
:10081000516801F00C01082900F0AC802369002B1D
:1008200000F0418101228A4B884D1A60FFF708FDD4
:10083000064605E0FFF704FD801B022800F2E78072
:100840002B689807F6D52B68626923F0F80343EA12
:10085000C2032B6023681A0722D5A369002B00F07E
:10086000988001227B4B794D1A60FFF7E9FC064620
:1008700005E0FFF7E5FC801B022800F2C8806B6AE8
:100880009B07F6D5744B754A1B68A2FB03235B0AD2
:10089000019300BF019B5A1E0192002BF9D12368DE
:1008A0005D0739D5694BDA69D00040F182800025B7
:1008B0006B4B1A68D10540F19980E368012B0FD08A
:1008C000002B00F0D180052B604B1A6A00F0FC80F1
:1008D00022F001021A621A6A22F004021A6204E08B
:1008E0005A4A136A43F001031362FFF7A9FC574EFB
:1008F000804641F2883706E0FFF7A2FCA0EB080033
:10090000B84200F28480336A9B07F5D525B14F4A7F
:10091000D36923F08053D361E269CAB14B4D696852
:1009200001F00C01082930D0022A4FF000014D4A95
:1009300000F0D2801160FFF783FC2C46054604E0EE
:10094000FFF77EFC401B022861D823689B01F7D487
:10095000002002B0BDE8F0814A68D0037FF52CAFDB
:100960003A4A126891037FF54BAF6268002A7FF420
:1009700047AF0AE05268D6033FF550AF334A1268DA
:10098000950721D52269012A1ED0012002B0BDE8B9
:10099000F081304A2D4D1360FFF752FC064604E00B
:1009A000FFF74EFC801B022831D86B6A9F07F7D4F3
:1009B00075E7DA69012542F08052DA61DB6903F0FC
:1009C00080530093009B73E7204960690A6822F016
:1009D000F80242EAC0020A601A077FF561AF3CE7FD
:1009E0001A4A136843F480331360FAE61A681E4605
:1009F00042F480721A60FFF723FC07463368DA0579
:100A00003FF55BAFFFF71CFCC01B6428F6D9032041
:100A100002B0BDE8F08103F1804303F504331A68A6
:100A20001D4622F480321A601A6822F480221A606D
:100A3000FFF706FC064604E0FFF702FC801B642873
:100A4000E5D82B689B03F7D4D9E600BF001002401D
:100A500000004242800442420C000020D34D62104C
:100A6000007000406000424203F1804303F504330C
:100A70001A6A1E4622F001021A621A6A41F2883886
:100A800022F004021A62FFF7DBFB074604E0FFF7DF
:100A9000D7FBC01B4045BAD8336A9807F7D4002D5E
:100AA0003FF43AAF33E72B4A2B4D1360FFF7C8FBF7
:100AB000064604E0FFF7C4FB801B0228A7D82B687A
:100AC0009907F7D42368C6E642F004021A621A6A4C
:100AD00042F001021A6208E71160FFF7B1FB064617
:100AE00004E0FFF7ADFB801B022890D82B6899012A
:100AF000F7D4226AB2F5803F05D1EB6AA16823F0F2
:100B00000F030B43EB620125134B606A59680243E4
:100B100021F4741111480A435A6005601C46FFF71E
:100B20008FFB054605E0FFF78BFB401B02283FF6D5
:100B30006EAF23689A01F6D50AE703F18043A3F567
:100B40003C331A6842F480221A601A6842F48032F8
:100B50001A6046E600004242001002406000424235
:100B6000F0B5036889B09D0704460FD5580704D532
:100B700055494A6842F4E0624A6019076DD4524907
:100B8000A0684A6822F0F00202434A60DA0726D5DC
:100B900060684D4B01281B6800F08980022800F036
:100BA0008A809D0740F18A80474D41F288376B6803
:100BB00023F0030318436860FFF742FB63680646AF
:100BC000012B55D0022B05D16BE0FFF739FB801BC1
:100BD000B84276D86B6813F00C0FF6D1236859072A
:100BE00006D53949E0684A6822F4E06202434A6067
:100BF0001A0707D5344A2169536823F4605343EA3E
:100C0000C10353606D46314B03F110040FCB85E8EF
:100C10000F0094E80F0008AC04E90F002A494A6865
:100C200002F00C03082B35D1C2F38343234413F89D
:100C3000200CD30322D4264B03FB00F3224A254881
:100C400052682549C2F30312825C0020D3400B6036
:100C500004F02EF9002009B0F0BD1B494A6842F4A7
:100C600060524A608BE7FFF7EBFA801BB84228D846
:100C70006B6803F00C03042BF5D1AFE7CA6A174B7E
:100C800002F00F0203FB00F3224412F8102CB3FB16
:100C9000F2F3D3E7114BD1E7FFF7D2FA801BB8424A
:100CA0000FD86B6803F00C03082BF5D196E79F0370
:100CB0003FF57AAFCFE79E013FF576AF012009B04F
:100CC000F0BD032009B0F0BD001002408C500008B8
:100CD00000093D00C05000080C00002000127A00FE
:100CE000044B05495B68054AC3F30223CB5C1068DB
:100CF000D840704700100240D05000080C0000207F
:100D0000044B05495B68054AC3F3C223CB5C1068FA
:100D1000D840704700100240D05000080C0000205E
:100D20000F2210B400240B4B02605A6802F0030239
:100D300042605A6802F0F00282605A6802F4E0628F
:100D4000C2605B68DB0803F4E06303610C6010BC05
:100D5000704700BF00100240A0B390F83D3070B55E
:100D600003F0FF02044643B302232268354E84F8A1
:100D70003D30B2421368A569E068616824D0B2F1E1
:100D8000804F37D0A6F59436B24249D006F580663A
:100D9000B24245D006F59C36B24219D006F58066BF
:100DA000B24215D006F58066B24211D023F080031E
:100DB0002B431360D062916216E080F83C2003F070
:100DC0001FFFD1E701207047A66823F0700333436B
:100DD000266923F44073334323F080032B431360CD
:100DE000D06291626369136301230020536184F828
:100DF0003D3070BDA66823F070033343266923F4A9
:100E00004073334323F080032B431360D06291621D
:100E10000D4B9A42E6D003F580639A42E4D1E1E7B4
:100E2000A66823F070033343266923F440733343E9
:100E3000064E23F080032B43B2421360D0629162CE
:100E4000D0D0E5E7002C01400044014000400140C3
:100E5000022210B401240346016880F83D200A688C
:100E6000002022430A6083F83D4010BC704700BF59
:100E70000346022041F211111A6883F83D00106AFE
:100E8000084208D140F24441106A084203D1116877
:100E900021F0010111600122002083F83D207047FC
:100EA00003680020DA6842F00102DA601A6842F052
:100EB00001021A60704700BF704700BFA0B390F8EE
:100EC0003D3070B503F0FF02044643B302232268AD
:100ED000354E84F83D30B2421368A569E068616818
:100EE00024D0B2F1804F37D0A6F59436B24249D023
:100EF00006F58066B24245D006F59C36B24219D05E
:100F000006F58066B24215D006F58066B24211D071
:100F100023F080032B431360D062916216E080F8C7
:100F20003C20FFF7C9FFD1E701207047A66823F0F6
:100F300070033343266923F44073334323F0800363
:100F40002B431360D0629162636913630123002015
:100F5000536184F83D3070BDA66823F070033343BD
:100F6000266923F44073334323F080032B4313603B
:100F7000D06291620D4B9A42E6D003F580639A42AB
:100F8000E4D1E1E7A66823F070033343266923F434
:100F900040733343064E23F080032B43B242136069
:100FA000D0629162D0D0E5E7002C014000440140BE
:100FB000004001400122036802FA01F11A6A0F4859
:100FC00022EA01021A621A6A834241EA02011962A4
:100FD0000AD00B4A934207D002F58062934203D0B5
:100FE00002F58062934203D15A6C42F400425A6483
:100FF0001A68002042F001021A607047002C01407C
:10100000004001400122036802FA01F11A6A10B49B
:1010100022EA01011962044619481A6A83421A62D7
:101020001ED0184A93421BD002F58062934217D01B
:1010300002F58062934213D041F21112196A1142F3
:1010400008D140F24442196A114203D11A6822F0D1
:1010500001021A600123002084F83D3010BC704763
:1010600041F21112196A1142E6D140F24442196A62
:101070001142E1D15A6C22F400425A64DCE700BF0D
:10108000002C01400040014090F83C30012B00F062
:101090001781F0B40223012480F83D3080F83C40F1
:1010A0000C2A45D8DFE802F0074444448544444410
:1010B000B74444444D0003688E681D6A0F6825F0EC
:1010C00001051D621A6A5D6822F002029C693243C2
:1010D0007C4E24F07304B34244EA07040BD006F5B7
:1010E000A056B34207D006F58066B34203D006F59A
:1010F0008066B3420BD1CE6822F00802324325F459
:101100004075D1E905673E4322F0040235434E683D
:101110005D609C615E631A629C690D6944F008041D
:101120009C61996921F0040199619A692A439A6145
:101130000023F0BC012280F83C3080F83D201846A6
:10114000704703688E681D6A0F6825F480551D621C
:101150001A6A5D6822F40052DC6942EA0632594E8E
:1011600024F4E644B34244EA072400F0A38006F5E1
:10117000A056B34200F09E8006F58066B34200F0B0
:10118000998006F58066B34200F094804E685D60F9
:10119000DC611E641A62DC690D6944F40064DC6180
:1011A000D96921F48061D961DA6942EA0522DA61FC
:1011B000BEE703688E681D6A0F6825F010051D6282
:1011C0001C6A5D6824F020049A6944EA06143D4EC6
:1011D00022F4E642B34242EA07225CD03A4EB342DE
:1011E00060D03A4EB3425DD006F58066B34259D026
:1011F0004E685D609A619E631C629C690D6944F44F
:1012000000649C61996921F4806199619A6942EA5C
:1012100005229A618CE703688E681D6A0F6825F4C1
:1012200080751D621C6A5D6824F40074DA6944EA02
:101230000624244E22F07302B34242EA07021BD076
:10124000214EB3421FD0214EB3421CD006F580661A
:10125000B34218D04E685D60DA61DE631C62DC69FF
:101260000D6944F00804DC61D96921F00401D961F9
:10127000DA692A43DA615BE7CE6824F4006444EA61
:10128000062424F48064D1E9056725F440553E43E3
:1012900045EA0615DEE7CE6824F0800444EA061429
:1012A00024F04004D1E9056725F440653E4345EA52
:1012B00086059DE74E6925F4804545EA861565E774
:1012C00002207047002C01400040014000440140D2
:1012D00090F83C30012B67D00222F0B4012503685E
:1012E00080F83D209A680C6822F47F4222F0770251
:1012F000402C80F83C509A6000F0938018D9702CF4
:101300007FD02BD9B4F5805F76D0B4F5005F1CD1C7
:10131000D1E90152CC6899682A4342EA042221F4B7
:101320007F410A439A609A6842F480429A600CE0D6
:10133000102C42D02FD9202C38D0302C05D19A68CF
:1013400022F0700242F037029A600023F0BC0122C2
:1013500080F83C3080F83D2018467047502C33D040
:10136000602CF2D11C6A4D6824F01004CE681C6217
:1013700099691A6A21F4704122F0A00242EA05122A
:1013800041EA063199611A629A6822F0700242F0CD
:1013900067029A60D9E7002CD7D19A6822F07002D0
:1013A00042F007029A60D0E7022070479A6822F064
:1013B000700242F027029A60C7E79A6822F0700232
:1013C00042F017029A60C0E71D6A1E6A4C6826F058
:1013D0000106CF681E629A6925F00A0122F0F00228
:1013E00042EA071221439A6119629A6822F0700258
:1013F00042F057029A60A8E79A6822F007029A60C2
:10140000A3E7D1E90152CC6899682A4342EA042251
:1014100021F47F410A439A609A6842F077029A6009
:1014200093E71D6A1E6A4C6826F00106CF681E62AB
:101430009A6925F00A0122F0F00242EA07122143DC
:101440009A6119629A6822F0700242F047029A602B
:101450007BE700BF90F83C30F0B4012B44D002226F
:101460000125036880F83D209A684C6822F07002DC
:101470000E68224322F007023243502C80F83C5081
:101480009A6048D020D9602C32D0702C0AD1D1E992
:1014900002520C6999682A4342EA042221F47F41EE
:1014A0000A439A60002101250C46DA6822F04002C6
:1014B000DA60DA6822F48042DA6080F83D5080F821
:1014C0003C102046F0BC7047402CEBD11D6A1C6AD2
:1014D0000E6924F001041C629A6922F0F00242EACB
:1014E00006129A611D62DDE702242046F0BC7047B7
:1014F0001C6A8D6824F010040E691C6299691A6ACE
:1015000021F4704122F0A00241EA063142EA0512BC
:1015100099611A62C6E71D6A1E6A8C6826F0010688
:101520000F691E629A6925F00A0122F0F002214338
:1015300042EA07129A611962B4E700BF704700BF20
:10154000704700BF704700BF704700BF036810B509
:101550001A690446910702D5DA6892075FD41A69BE
:10156000500702D5DA68510746D41A69120702D526
:10157000DA6810072ED41A69D20602D5DA68D006C6
:1015800018D41A69D10702D5DA68D2075DD41A696E
:10159000100602D5DA6811065FD41A69520602D520
:1015A000DA68500661D41A69910602D5DA689206A3
:1015B00043D410BD6FF0100108221961DB69204689
:1015C00013F4407F227764D0FFF7BAFF002223682C
:1015D0002277D6E76FF0080104221961DB69204603
:1015E0009907227752D1FFF7A9FF2046FFF7AAFFFC
:1015F000002223682277BEE76FF0040102221961FE
:101600009B69204613F4407F22773CD1FFF796FF79
:101610002046FFF797FF002223682277A5E76FF0A7
:101620000201012219619B6902779B0725D0FFF710
:1016300087FF00222368227791E76FF0200220467F
:10164000BDE810401A6100F0BDB86FF001022046FD
:101650001A6102F001FF236899E76FF080022046CB
:101660001A6100F0B1F8236897E76FF04002204656
:101670001A61FFF769FF236895E7FFF75FFF2046D0
:10168000FFF760FFD5E7FFF75BFFC4E7FFF758FF01
:10169000AEE7FFF753FF2046FFF754FF96E700BF82
:1016A0000422036802FA01F11A6A002022EA010208
:1016B0001A621A6A114319625A6C42F400425A645F
:1016C0001A6842F001021A60704700BF042210B489
:1016D00041F21114036802FA01F11A6A22EA0101C7
:1016E00019621A6A1A621A6A224204D140F244420A
:1016F000196A114210D041F21112196A114208D12F
:1017000040F24442196A114203D11A6822F00102E0
:101710001A60002010BC70475A6C22F400425A64D0
:10172000E9E700BF90F83C30012B22D00246D1E916
:10173000020310B4002423F440730343486823F4E5
:1017400080630343086823F400630343086923F4B8
:1017500080530343486923F400530343886923F407
:101760004043116803434B64204682F83C4010BC60
:1017700070470220704700BF90F83C30012B1ED00C
:1017800002460220F0B400250126136882F83D00CD
:101790005C680F6824F070045C6058684C683843DB
:1017A0005860986820F08000986099682846214326
:1017B000996082F83D6082F83C50F0BC704702208E
:1017C000704700BF704700BF704700BF002800F09F
:1017D000F9802DE9F84390F83930044603F0FF0210
:1017E000002B00F0EA802422236884F83920DA688C
:1017F000E06822F40052DA601969A26821F44051CD
:10180000014319612069D96865690243E06921F4DF
:1018100016412A4321F00C0102430A43DA605A6957
:10182000A16922F440720A43B0F5004F5A61A44AFC
:101830006CD0934200F00681FFF752FA636800EB28
:10184000800000EB80009B00B0FBF3F39D4F4FF056
:101850006408A7FB03235B091D01FFF741FA6668D3
:1018600000EB800000EB8000B600B0FBF6F6FFF75F
:1018700037FA626800EB8000930000EB8000B0FB59
:10188000F3F3A7FB03235B0908FB13631B0132334C
:10189000A7FB03235B0903F0F006FFF721FA626858
:1018A00000EB800000EB80009300B0FBF3F9FFF742
:1018B00017FA626800EB8000930000EB8000B0FB39
:1018C000F3F3A7FB03235B0908FB13931B013233DC
:1018D000A7FB0323C3F34313334322682B449360D2
:1018E000002520211369284623F49043136153698E
:1018F00023F02A035361D36843F40053D360E563B4
:1019000084F8391084F83A10BDE8F88393425BD02C
:10191000FFF7E6F9636800EB800000EB80005B00F6
:10192000B0FBF3F3674F4FF06408A7FB03235B0999
:101930001E01FFF7D5F9656800EB800000EB800021
:101940006D00B0FBF5F5FFF7CBF9626800EB8000A6
:10195000530000EB8000B0FBF3F3A7FB03235B090C
:1019600008FB1353DB003233A7FB03231B0903F4EB
:10197000F875FFF7B5F9626800EB800000EB8000B6
:101980005300B0FBF3F9FFF7ABF9626800EB80009E
:10199000530000EB8000B0FBF3F3A7FB03235B09CC
:1019A00008FB1393DB003233A7FB0323C3F342137B
:1019B000334422682B44936092E780F8382003F088
:1019C00019FA10E701207047FFF79AF9636800EBF6
:1019D000800000EB80005B00B0FBF3F3394F4FF069
:1019E0006408A7FB03235B091E01FFF789F96568FB
:1019F00000EB800000EB80006D00B0FBF5F5FFF719
:101A00007FF9626800EB8000530000EB8000B0FBC0
:101A1000F3F3A7FB03235B0908FB1353DB0032330B
:101A2000A7FB03231B0903F4F875FFF769F9626844
:101A300000EB8000530000EB8000B0FBF3F9FFF7F0
:101A40005FF9A2E7FFF75CF9636800EB800000EB49
:101A500080009B00B0FBF3F31A4F4FF06408A7FB24
:101A600003235B091D01FFF74BF9666800EB80005B
:101A700000EB8000B600B0FBF6F6FFF741F96268B4
:101A800000EB8000930000EB8000B0FBF3F3A7FBBA
:101A900003235B0908FB13631B013233A7FB0323FA
:101AA0005B0903F0F006FFF72BF9626800EB80009A
:101AB000930000EB8000B0FBF3F9FFF721F9F8E6A3
:101AC000003801401F85EB5190F83A30202B20D18F
:101AD00009B302B390F83830012B1AD030B4002388
:101AE00022250468C285C36380F83A50E568828580
:101AF00045F4807580F838308162E5606269184687
:101B000042F001026261E36843F02003E36030BC0D
:101B10007047022070470120704700BFF8B590F869
:101B20003930202B2AD159B352B390F83830012BD9
:101B300024D004461346002621220127C384114DD8
:101B4000006BE66384F839200F4AA384216284F88D
:101B500038708562C2620D4D2268466305630432A7
:101B6000FEF7FCFB6FF04002236830461A605A69AA
:101B700084F8386042F080025A61F8BD0220F8BD56
:101B80000120F8BD951B0008C51B0008411C00087A
:101B9000704700BF08B50368406A1B6813F0200354
:101BA0000AD10268C384536923F080035361D36868
:101BB00043F04003D36008BDFFF7EAFF08BD00BF54
:101BC000704700BF08B5406AFFF7FAFF08BD00BFC5
:101BD00010B584680169B4F5805F836A026820D01B
:101BE0005C1C52688462C9B91A70C38D013B9BB2F8
:101BF000C3858BB920240268D16821F02001D1600F
:101C0000D16821F48071D160516921F001015161E5
:101C100080F83A4002F020FD002010BD02F07F0263
:101C2000E2E7526829B9C2F3080223F8022B836263
:101C3000DBE7D2B223F8012B8362D6E7704700BFFF
:101C400008B5436A1A68506993F8391021291CD0E5
:101C5000506993F83A10222907D0DA6B184642F0FF
:101C60001002DA63FFF7EAFF08BD4106F5D500214F
:101C70002020D985D16821F49071D160516921F07B
:101C80000101516183F83A00E7E70006E0D5002141
:101C90002020D984D16821F0C001D16083F83900B7
:101CA000D6E700BF036870B51A6804461607DD68FA
:101CB00059694AD011F0010150D0D60705D5E80581
:101CC00003D5E06B40F00100E063560702F002002C
:101CD00076D561B1E16B02F0080641F00201E163E3
:101CE000002872D11EB1E16B41F00801E163E16BA4
:101CF000002932D0960601D5A80674D45D69E16B3F
:101D0000090702D415F040057AD02021DA6822F4C0
:101D10009072DA605A6922F001025A6184F83A102E
:101D20005A6952065BD55A69616B22F040025A61CA
:101D3000002954D03B4B08464B63FEF753FB60B180
:101D4000606BBDE87040436B1847960609D5A9063D
:101D500007D590F83A30222B4ED070BD15F4907F05
:101D6000ABD116060ED45106F7D56A06F5D520215B
:101D7000DA68204622F04002DA6084F83910FFF772
:101D800007FF70BD2806EED594F83920212AE4D14A
:101D9000A168226AB1F5805F37D0511C21621278A8
:101DA0005A60E28C013A92B2E284002AD5D1DA6814
:101DB00022F08002DA60DA6842F04002DA6070BD38
:101DC00040B1002993D002F00806E16B41F0040114
:101DD000E16387E710078AD5002984D187E7204689
:101DE000FFF72CFF70BD94F83A20222A86D12046B6
:101DF000FFF7EEFE236881E7BDE87040FFF7E8BE1D
:101E00002046FFF71BFFE56370BD11882069C1F311
:101E10000801596010B902322262C2E7013222621F
:101E2000BFE700BF291E0008002208B5436ADA8513
:101E30001846DA84FFF702FF08BD00BF08B500F0BE
:101E40006BFE002008BD00BF30B5B0F90840024667
:101E5000842C08BF002485B018BF033403AD0B46A3
:101E600040681168128ACDE9004500F041FD012863
:101E700014BF0020039805B030BD00BF08B500288E
:101E800008BF012001F01EF8002008BD4FF0FF310F
:101E9000002200F108038160C0E90023C0E9033398
:101EA000704700BF00230361704700BFD0E90023E3
:101EB00010B49C6801328C609C684B6061609960D2
:101EC00010BC08610260704730B40D686B1C11D003
:101ED00000F1080200E01A4653681C68AC42FAD9C7
:101EE00004684B60013499608A6051600861046045
:101EF00030BC704702695368F2E700BF026910B452
:101F0000D0E9013154689960816884424B6008BF10
:101F10005160002113680161581E106010BC7047A9
:101F200040B94FF0500383F31188BFF36F8FBFF3B5
:101F30004F8FFEE770B506460D4651B101FB00F02C
:101F4000483001F0B9FD044658B300F1480303607E
:101F500005E0482001F0B0FD044610B32460C4E958
:101F60000F6501F087FCD4E90F32FF25002003FB49
:101F700002F321689A1A0A440B44A063E260C4E9A0
:101F8000013104F1100084F8445084F84550FFF703
:101F90007DFF04F12400FFF779FF01F08DFC20465E
:101FA00070BD0024204670BD2DE9F04F85B0019230
:101FB000002800F02281002900F01281022B0BD1B1
:101FC000C26B012A08D04FF0500383F31188BFF38E
:101FD0006F8FBFF34F8FFEE704461E460F4601F09A
:101FE00029F9002840F0F980019B43B14FF05003DC
:101FF00083F31188BFF36F8FBFF34F8FFEE79A46CD
:1020000001F038FCA26BE36B4FF000089A42DFF856
:10201000109375D3022E00F0F980019D002D00F081
:102020004C81BAF1000F02D102A801F0ABF801F027
:1020300043FC00F041FE01F01DFC94F84430FF2BFE
:1020400008BF84F8448094F84530FF2B08BF84F81B
:10205000458001F031FC01A902A801F0A7F8002891
:1020600040F0118101F006FCA26BE36B9A4267D04D
:1020700001F022FC01F0FEFB94F845506DB2002DFA
:1020800011DD636A7BB104F1240A01E0636A53B194
:10209000504601F03BF808B101F0C4F8013DEBB245
:1020A0005DB2002BF2D1FF2384F8453001F004FC2F
:1020B00001F0E0FB94F844506DB2002D11DD23696E
:1020C0007BB104F1100A01E0236953B1504601F0DD
:1020D0001DF808B101F0A6F8013DEBB25DB2002B8E
:1020E000F2D1FF2384F8443001F0E6FB00F076FEE5
:1020F00001F0C0FBA26BE36B4FF0010A9A4289D258
:10210000226CA56B002A00F08680002E00F0A180D2
:102110003946E06802F0A2FF236CE2685B42216866
:102120001A448A42E26002D262681344E360022EDB
:10213000636A00F0C6800135A563002B71D09BE077
:1021400004F1100A01F0B8FB5046019900F04EFF6F
:1021500001F090FB94F845506DB2002D11DD636ADB
:102160007BB104F1240B01E0636A53B1584600F0DF
:10217000CDFF08B101F056F8013DEBB25DB2002B86
:10218000F2D1FF2384F8453001F096FB01F072FB99
:1021900094F844506DB2002D0ADC0CE0504600F07B
:1021A000B5FF08B101F03EF8013DEBB25DB213B1ED
:1021B0002369002BF2D1FF2384F8443001F07CFB2B
:1021C00000F00CFE002893D14FF08053C9F8003086
:1021D000BFF34F8FBFF36F8F8AE74FF0000A0FE70F
:1021E000026C002A3FF4EAAE4FF0500383F31188EB
:1021F000BFF36F8FBFF34F8FFEE74FF0500383F3B2
:102200001188BFF36F8FBFF34F8FFEE7226CA56B72
:10221000002A7FF47DAF2668013546B1636AA56365
:1022200053BB01F049FB012005B0BDE8F08F6068A9
:1022300001F056F8636A6660A563EBB90028F0D038
:102240004FF08052364B1A60BFF34F8FBFF36F8F42
:10225000E7E73946A06802F001FFA368216C6268D5
:102260000B44934205F10105A360D7D32268636A4A
:10227000A563A260002BD4D004F1240000F046FF37
:102280000028DDD1CDE701F0F5FA94F845506DB2A4
:10229000002D1DDD636ADBB104F1240605E0013D7C
:1022A000EBB25DB2A3B1636A93B1304600F02EFF8A
:1022B0000028F4D000F0B6FFF1E701F0FDFA28465F
:1022C000B2E7002DABD10122A263002BA9D0D3E746
:1022D000FF2384F8453001F0EFFA01F0CBFA94F8CF
:1022E00044506DB2002D12DD236983B104F1100654
:1022F00005E0013DEBB25DB24BB123693BB1304625
:1023000000F004FF0028F4D000F08CFFF1E7FF2379
:1023100084F8443001F0D0FA00F060FD002083E73B
:1023200004ED00E0002837D02DE9F04741B3022B3F
:102330000BD1C46B012C08D04FF0500383F31188EC
:10234000BFF36F8FBFF34F8FFEE704461F469146E2
:102350008A4601F05FFBEFF311884FF0500383F3DF
:102360001188BFF36F8FBFF34F8FA26BE36B9A425D
:102370001BD3022F34D0002088F31188BDE8F087EA
:10238000046C002CD3D04FF0500383F31188BFF3BB
:102390006F8FBFF34F8FFEE74FF0500383F3118829
:1023A000BFF36F8FBFF34F8FFEE794F84550226C59
:1023B0006DB2A66BDAB16FB35146E06802F04EFE23
:1023C000236CE2685B4221681A448A42E26002D2CE
:1023D00062681344E360022F0FD176B1013E0CE036
:1023E00094F84550226C6DB2A66B002AE4D12768A0
:1023F0001FB9606800F074FF676001366B1CA6634C
:1024000016D001202B185BB284F8453088F3118870
:10241000BDE8F0875146A06802F020FEA368216C59
:1024200062680B449342A360E7D32368A360E4E7A8
:10243000636A0BB901209FE704F1240000F066FEF7
:102440000028F7D0B9F1000FF4D00120C9F800003E
:1024500092E700BF2DE9F04F85B00192002800F00F
:102460005981002900F04981044698460F4600F042
:10247000E1FE50B9019B43B14FF0500383F3118843
:10248000BFF36F8FBFF34F8FFEE701F0F3F9A56B3A
:10249000002D40F0BA80019B002B6AD002A8AA460A
:1024A00000F070FEDFF8B8B204F1240601F004FA7F
:1024B00000F002FC01F0DEF994F84430FF2B08BF75
:1024C00084F844A094F84530FF2B08BF84F845A059
:1024D00001F0F2F901A902A800F068FE00284ED12F
:1024E00001F0C8F9A36B002B00F0BA8001F0E4F909
:1024F00001F0C0F994F845506DB2002D0ADC0CE0F3
:10250000304600F003FE08B100F08CFE013DEBB256
:102510005DB213B1636A002BF2D1FF2384F845301A
:1025200001F0CAF901F0A6F994F844506DB2002DFB
:1025300010DD236973B104F11009484600F0E6FD8F
:1025400008B100F06FFE013DEBB25DB213B123693B
:10255000002BF2D1FF2384F8443001F0ADF900F0F4
:102560003DFC01F087F9A56B002D4ED1019B002B9E
:102570009CD101F0A1F9002005B0BDE8F08F01F079
:1025800079F994F845506DB2002D0ADC0CE0304624
:1025900000F0BCFD08B100F045FE013DEBB25DB2BC
:1025A00013B1636A002BF2D1FF2384F8453001F0A8
:1025B00083F901F05FF994F844506DB2002D11DDFC
:1025C00023697BB104F1100901E0236953B1484646
:1025D00000F09CFD08B100F025FE013DEBB25DB2BC
:1025E000002BF2D1FF2384F8443001F065F900F0AC
:1025F000F5FB01F03FF9A36B002BBAD001F05CF9B9
:1026000001F038F9A56B002DB0D0226CE6685AB104
:102610006168B3188B42E36028BF2368384628BF3F
:10262000E360E16802F01AFDB8F1000F40F083802A
:102630002368013DA563002B00F086802369002BF1
:102640007CD004F1100000F061FD002876D04FF03E
:102650008052434B1A60BFF34F8FBFF36F8F6DE013
:1026600001F02AF92368002B5DD00199304600F073
:10267000BDFC01F0FFF894F845506DB2002D0ADC66
:102680000CE0304600F042FD08B100F0CBFD013D0A
:10269000EBB25DB213B1636A002BF2D1FF2384F871
:1026A000453001F009F901F0E5F894F844506DB2B5
:1026B000002D10DD236973B104F11009484600F0C4
:1026C00025FD08B100F0AEFD013DEBB25DB213B1E6
:1026D0002369002BF2D1FF2384F8443001F0ECF899
:1026E00000F07CFB00288BD14FF08053CBF80030FA
:1026F000BFF34F8FBFF36F8F82E7026C002A3FF466
:10270000B3AE4FF0500383F31188BFF36F8FBFF365
:102710004F8FFEE74FF0500383F31188BFF36F8FA5
:10272000BFF34F8FFEE701F0A5F8606800F092FD5F
:1027300001F0C2F899E7636AE6604BB901F0BCF8B2
:10274000012005B0BDE8F08F00F01AFE606075E76B
:1027500004F1240000F0DAFC00287FF478AFEDE704
:1027600004ED00E0134B1A687AB19A68AAB11A69AD
:10277000AAB19A69AAB11A6AAAB19A6AAAB11A6BDD
:1027800012B19A6B9AB17047062210B403EBC204DF
:10279000606043F8321010BC70470122F5E7022256
:1027A000F3E70322F1E70422EFE70522EDE7072232
:1027B000EBE700BFBC0D002070B505460C46164681
:1027C00001F058F895F84430FF2B04BF002385F83A
:1027D000443095F84530FF2B04BF002385F8453081
:1027E00001F06AF8AB6B2BB93246214605F12400A3
:1027F00000F03EFC01F03EF895F8454064B2002C34
:1028000016DD6B6AA3B105F1240605E0013CE3B2D5
:102810005CB26BB16B6A5BB1304600F077FC0028AC
:10282000F4D0013C00F0FEFCE3B25CB2002BF1D12D
:10283000FF2385F8453001F03FF801F01BF895F8CB
:10284000444064B2002C16DD2B69A3B105F11006DB
:1028500005E0013CE3B25CB26BB12B695BB1304681
:1028600000F054FC0028F4D0013C00F0DBFCE3B2A3
:102870005CB2002BF1D1FF2385F84430BDE87040F5
:1028800001F01AB8F8B5184C0646256860680F467E
:102890000430FFF733FB38B901226168A368C96AC5
:1028A0008A4023EA0203A360731C14D06368AD1945
:1028B0005D6009D2606A61680431FFF705FBA36AB5
:1028C000AB4288BFA562F8BD206A6168BDE8F840E8
:1028D0000431FFF7F9BA002FE8D0616803480431EA
:1028E000BDE8F840FFF7E2BA2C00002038000020D5
:1028F0002DE9F84F4FEA820A804650460D46994628
:102900000B9F01F0D9F8002800F0FC800646542007
:1029100001F0D2F80446002800F0C88006632B7846
:10292000AAF1040A80F834302B78564426F0070ABE
:10293000002B4DD06B7880F835306B78002B47D06A
:10294000AB7880F83630AB78002B41D0EB7880F84C
:102950003730EB78002B3BD02B7980F838302B794F
:10296000002B35D06B7980F839306B79002B2FD064
:10297000AB7980F83A30AB7953B3EB7980F83B30E0
:10298000EB792BB32B7A80F83C302B7A03B36B7A3C
:1029900080F83D306B7ADBB1AB7A80F83E30AB7AB1
:1029A000B3B1EB7A80F83F30EB7A8BB12B7B80F8B8
:1029B00040302B7B63B16B7B80F841306B7B3BB14C
:1029C000AB7B80F84230AB7B13B1EB7B80F84330BC
:1029D0000A9D4FF0000B062D28BF0625261DE56237
:1029E0006564304684F843B0C4F848B0FFF75AFA3B
:1029F000C5F1070504F11800FFF754FAC4F84CB00C
:102A0000A561246184F850B064624A46414650464C
:102A100000F00AFF206007B13C603C4D00F02AFF47
:102A2000EB6A0133EB626B68002B37D0D5F80C21D1
:102A3000E36A6AB305F13008012707FA03F203EBF2
:102A40008303D5F808C008EB8300D5F8103142EABB
:102A50000C023B443146C5F81031AA60FFF726FA54
:102A600000F02AFFD5F80C317BB16A68E36AD26ABC
:102A70009A420AD24FF08052254B1A60BFF34F8F13
:102A8000BFF36F8F3846BDE8F88F3846BDE8F88F42
:102A90006A68D26A9A4298BF6C60CBE76C60EB6A56
:102AA000012B0AD0E36A05F13008C5E7304601F092
:102AB00089F84FF0FF30BDE8F88F05F13008474640
:102AC00005F1BC0938461437FFF7E0F94F45F9D155
:102AD000DFF84090A9F11400FFF7D8F94846FFF756
:102AE000D5F909F11400FFF7D1F909F12800FFF732
:102AF000CDF9A9F1C400FFF7C9F96F62E36AC5F81F
:102B0000209099E74FF0FF30C0E700BF2C00002075
:102B100004ED00E0FC0000202DE9F8434FF40070C4
:102B200000F0CAFF002800F08D800646542000F017
:102B3000C3FF0546002800F082800024594B071D82
:102B40004363066380F8384080F84340C462C0E9BC
:102B500011443846FFF7A6F905F11800FFF7A2F96E
:102B6000072306F5FE7626F00706EC642246AB61E5
:102B700085F850404C4930462D616D6200F054FE9E
:102B80004A4C2860C4F8205100F074FEE36A013317
:102B9000E3626368002B37D0D4F80C31E86A23B9BC
:102BA0006368DB6A834298BF656004F130060123E5
:102BB000D4F808C0D4F81021834000EB800043EA29
:102BC0000C030132394606EB8000A360C4F81021E3
:102BD000FFF76CF900F070FED4F80C3163B1626855
:102BE000EB6AD26A9A4207D24FF08052304B1A6099
:102BF000BFF34F8FBFF36F8F00F02EFD01280BD076
:102C000001301FD0BDE8F8836560E36A012B22D054
:102C1000E86A04F13006CAE74FF0500383F31188E5
:102C2000BFF36F8FBFF34F8F00234FF0FF32A262CD
:102C3000C4F80C012360BDE8F84300F09FBE3046A5
:102C400000F0C0FF4FF0500383F31188BFF36F8F84
:102C5000BFF34F8FFEE704F13006B04604F1BC0924
:102C6000404608F11408FFF711F9C145F8D1DFF823
:102C70004480A8F11400FFF709F94046FFF706F970
:102C800008F11400FFF702F908F12800FFF7FEF839
:102C9000A8F1C400FFF7FAF8C4F82490E86AC4F871
:102CA000208084E749444C45112F00082C00002067
:102CB00004ED00E0FC000020034AD2F81831013393
:102CC000C2F81831704700BF2C000020014B186873
:102CD000704700BF2C0000202DE9F0473D4CD4F890
:102CE0001831002B43D1266801362660002E4CD0C7
:102CF000A36A0025B3422FD84FF0010ADFF8D8901D
:102D000023E0636ADB68DF687B6807F104089E42A2
:102D100057D34046FFF7F2F8BB6A07F118000BB132
:102D2000FFF7ECF8F86AA2680AFA00F300EB8000FB
:102D30001343414609EB8000A360FFF7B7F86368CF
:102D4000FA6ADB6A9A4228BF0125636A1B68002B76
:102D5000D7D14FF0FF33A3626368DB6A03EB8303D1
:102D600004EB83031B6B022B28BF012505E0002524
:102D7000D4F828310133C4F82831D4F81C31002BA1
:102D80000CBF28460120BDE8F087636A1B6843B189
:102D90004FF0500383F31188BFF36F8FBFF34F8F52
:102DA000FEE7636A226A62622362D4F82431013347
:102DB000C4F82431636A1B682BB94FF0FF33A36258
:102DC00096E7A362C8E7636ADB68DB685B68A362B7
:102DD0008EE700BF2C0000205C0000202DE9F041B0
:102DE000364CD4F8183143B94FF0500383F31188AF
:102DF000BFF36F8FBFF34F8FFEE700F03BFDD4F8BA
:102E00001831013BC4F81831D4F8185145BBE36AB6
:102E100033B3012604F13007D4F8E43033B3D4F8E7
:102E2000F030DD6805F1040805F11800FFF766F8D9
:102E30004046FFF763F8E86AA26806FA00F300EB81
:102E400080001343414607EB8000A360FFF72EF894
:102E50006368EA6ADB6A9A42DED3C4F81C61DBE786
:102E6000002400F029FD2046BDE8F0812DB1636A01
:102E70001B68EBB94FF0FF33A362D4F828514DB172
:102E80000126FFF729FF08B1C4F81C61013DF8D104
:102E9000C4F82851D4F81C31002BE1D04FF08052F7
:102EA000074B1A60BFF34F8FBFF36F8F0124D8E732
:102EB000636ADB68DB685B68A362DEE72C000020E6
:102EC00004ED00E008B5B0B10F4BD3F8181141B1D3
:102ED0004FF0500383F31188BFF36F8FBFF34F8F11
:102EE000FEE7D3F818210132C3F81821FFF7CAFC16
:102EF000FFF774FF38B94FF08052044B1A60BFF3EC
:102F00004F8FBFF36F8F08BD2C00002004ED00E051
:102F100080B51A4C1A4F4FF0805609E0D4F818319A
:102F2000D4F8F8500133C4F81831FFF757FF65B9EA
:102F3000D4F81431002BF1D1236B012BF8D93E606A
:102F4000BFF34F8FBFF36F8FF2E700F093FCD4F81D
:102F50000431DD68281DFEF7D1FFE36A013BE3621F
:102F6000D4F81431013BC4F8143100F0A5FC286BEF
:102F700000F028FE284600F025FED9E72C000020AE
:102F800004ED00E0184AD2F81831CBB910B4C2F8F9
:102F90001C319368B3FA83F3DBB2C3F11F0303EB75
:102FA000830189005418206B70B1606B1144406834
:102FB00038318842606310D0C36810BC53607047DA
:102FC0000123C2F81C3170474FF0500383F311887E
:102FD000BFF36F8FBFF34F8FFEE7142101FB032375
:102FE00040685863E8E700BF2C00002040B94FF06C
:102FF000500383F31188BFF36F8FBFF34F8FFEE74A
:1030000070B5194C0D4661681831FEF75DFF2668F2
:1030100060680430FEF772FF38B901226168A36866
:10302000C96A8A4023EA0203A3606B1C0DD063685F
:10303000AD195D6010D2606A61680431FEF744FF2B
:10304000A36A9D4238BFA56270BD6168074804311C
:10305000BDE87040FEF72ABF206A6168BDE8704095
:103060000431FEF731BF00BF2C00002038000020E3
:10307000F8B540B31746234C0D4661681831FEF78A
:1030800015FF26686068043037B3FEF737FF002865
:1030900030D14FF0FF3501226168A368C96A8A40C8
:1030A00023EA0203A3606B1C22D0636875195D607C
:1030B00017D2606A61680431FEF706FFA36A9D4279
:1030C00000D2A562F8BD4FF0500383F31188BFF31F
:1030D0006F8FBFF34F8FFEE7FEF710FF0028E4D19C
:1030E000D9E7206A6168BDE8F8400431FEF7ECBE1C
:1030F000002FDAD0616804480431BDE8F840FEF7DB
:10310000D5BE00BF2C00002038000020F8B5C368F1
:10311000DD682DB305F11806194C3046FEF7EEFEBA
:10312000D4F818312BBB2E1D3046FEF7E7FE0123E5
:10313000E86AA768834004F1300200EB80003B435B
:10314000314602EB8000A360FEF7B0FE6368EA6AD6
:10315000DB6A9A428ABF01200020C4F81C01F8BD36
:103160004FF0500383F31188BFF36F8FBFF34F8F7E
:10317000FEE7314604F1E400FEF798FEE6E700BF03
:103180002C00002030B1084BD3F824211B68C0E983
:10319000002370474FF0500383F31188BFF36F8F04
:1031A000BFF34F8FFEE700BF2C000020F8B550B3EF
:1031B00001B30D46044600F05DFB2B68184A591C0C
:1031C000106829D0D4E90071D2F82461B74201D047
:1031D000884223D2461AB34220D91B1A0B442B60D3
:1031E0000025D2F824011268C4E9000200F064FB53
:1031F0002846F8BD4FF0500383F31188BFF36F8F5B
:10320000BFF34F8FFEE74FF0500383F31188BFF3F6
:103210006F8FBFF34F8FFEE70025E7E70125E5E756
:103220002C0000200122024BC3F81C21704700BF74
:103230002C000020064BD3F80C2132B1D3F8183102
:10324000002B0CBF0220002070470120704700BFF8
:103250002C000020D0B1F8B51F4CC36A6268D26A56
:10326000934212D28269002A04DB6268D26AC2F1F8
:1032700007028261194D03EB8303426905EB830367
:103280009A4204D06368DB6AC362F8BD7047071DC9
:1032900006463846FEF732FE68B9F26A02EB820350
:1032A00004EB83031B6B33B90121A36801FA02F21B
:1032B00023EA0202A260012362683946D06AA2684A
:1032C0008340F062134300EB800005EB8000A360B5
:1032D000BDE8F840FEF7EABD2C0000205C000020AD
:1032E00068B1F8B5244D6B6883420AD04FF05003A3
:1032F00083F31188BFF36F8FBFF34F8FFEE700207A
:1033000070479B6C43B94FF0500383F31188BFF3B0
:103310006F8FBFF34F8FFEE7C16A426C013B914252
:10332000836400D00BB10020F8BD071D0446384669
:10333000FEF7E4FD58B91423E16A03FB01531B6B4C
:103340002BB90122AB688A4023EA0203AB60012655
:103350004FF0140C636CA86806FA03F202430748A6
:10336000AA60C3F107020CFB03003946E362A261C5
:10337000FEF79CFD3046F8BD2C0000205C000020CC
:10338000044B5A681AB159688A6C01328A645868C9
:10339000704700BF2C0000202DE9F0411F4E84B083
:1033A00000270DE0DB68DC68D3F80080251D284687
:1033B000FEF7A4FD636A20469847E369012B09D014
:1033C00033681A68002AEDD1B268B360326004B085
:1033D000BDE8F081A3694344984517D3736863B18E
:1033E000CDE901780394FFF725FF002301A91A46D0
:1033F0007068FEF7D9FD0028E2D14FF0500383F347
:103400001188BFF36F8FBFF34F8FFEE763602461B6
:1034100029463068FEF758FDD2E700BF580100206A
:103420002DE9F04701268A4C8A4F86B023681D6833
:10343000002D4AD0DB681D68FFF73EFCFFF746FC15
:10344000E3688046984250D38542E06057D9002215
:10345000A5EB08016068FFF7AFF9FFF7BFFC30B9D3
:103460004FF080533B60BFF34F8FBFF36F8F4FF030
:103470000008002369461A466068FEF7EBFF002843
:10348000D4D0009B002BF4DBDDF80890D9F8143081
:103490001BB109F10400FEF731FDFFF717FCE368EB
:1034A0000546984228D3009BE560092BE1D806FA2F
:1034B00003F313F4047F6CD113F0C70F33D19B06D1
:1034C000D7D5484600F07EFBD3E7FFF7F5FBFFF7C3
:1034D000FDFBE3688046984207D3A368C4F80C80DC
:1034E0001A68B2FA82F25209B2E7FFF755FFC4F840
:1034F0000C80FFF773FCBAE7FFF74EFFD3E7FFF747
:103500006DFC2368DB68D3F80C9009F1040A50467F
:10351000FEF7F4FCD9F81C30012B57D0D9F8243031
:1035200048469847A3E7019BD9F81820C9F810909E
:1035300099182CBF01200020A942C9F804103BD8DB
:10354000EB1A9A4250D8D9F8243048469847D9F80F
:103550001C30012B8DD1636893B1D9F81830019AD2
:10356000CDF80C801344CDE90439FFF763FE002346
:1035700003A91A466068FEF717FD00287FF479AFAB
:103580004FF0500383F31188BFF36F8FBFF34F8F5A
:10359000FEE7019BC9F81830002B50D02B44AB42FA
:1035A000C9F80430C9F8109009F1040194BFA0686B
:1035B0002068FEF789FC5CE7AB4201D90028C2D045
:1035C00009F104012068FEF77FFC52E7D9F81830B2
:1035D000C9F81090EA184245C9F804200AD95146A2
:1035E0002068FEF771FC99E709F10401A068FEF775
:1035F0006BFC3EE7A8EB050843451BD8636883B125
:103600004FF00008CDE90459CDF80C80FFF712FE09
:103610004346424603A96068FEF7C6FC00287FF4D3
:103620007DAF4FF0500383F31188BFF36F8FBFF36B
:103630004F8FFEE75146A068FEF746FC6EE74FF05D
:10364000500383F31188BFF36F8FBFF34F8FFEE7F3
:103650005801002004ED00E0F0B51C4C83B000F0F0
:1036600009F96768BFB100F027F9636853B1022216
:10367000174B1849CDE90023174800238022FFF794
:1036800037F900BB4FF0500383F31188BFF36F8FFE
:10369000BFF34F8FFEE704F11006304604F1240516
:1036A000FEF7F4FB2846FEF7F1FB3A460C210A2010
:1036B0002660A560FEF734FC60600028D3D007497F
:1036C000FFF750F8CFE703B0F0BD00BF580100206E
:1036D00090010020E050000821340008D850000874
:1036E0002DE9F04F824683B028200E4691461F46B2
:1036F00000F0E2F90446D0B146B94FF0500383F32D
:103700001188BFF36F8FBFF34F8FFEE7174D00F0A7
:10371000B1F86A687AB100F0CFF80C9BC4F800A049
:10372000C4E9066927626362201DFEF7BBFB2046E1
:1037300003B0BDE8F08F05F11008404605F1240BF9
:103740000192FEF7A3FB5846FEF7A0FB019A0C215D
:103750000A20C5F80080C5F808B0FEF7E1FB6860F4
:103760000028D8D00249FEF7FDFFD4E75801002019
:10377000D8500008C0B170B5164D0446686884B0D2
:1037800080B1164605291A46CDE90116039414DCCA
:10379000FFF750FD022816D0002368681A4601A9D9
:1037A000FEF702FC04B070BD4FF0500383F31188A4
:1037B000BFF36F8FBFF34F8FFEE7002301A9FEF722
:1037C000B1FD04B070BD68680023089A01A9FEF736
:1037D000EBFBE7E7580100200A4B1B68013308D0D8
:1037E0004FF0500383F31188BFF36F8FBFF34F8FF8
:1037F000FEE74FF0500383F31188BFF36F8FBFF3E1
:103800004F8FFEE70800002006480068006880F33C
:10381000088862B661B6BFF34F8FBFF36F8F00DFCA
:1038200000BF000008ED00E010B44FF08074064BBC
:1038300021F0010140F8202C40E9021440F80C3C32
:1038400010BC4038704700BFD937000800000000A6
:10385000074B19680868B0E8F00F80F30988BFF3D8
:103860006F8F4FF0000080F311884EF00D0E7047FF
:10387000300000204FF0500383F31188BFF36F8FA7
:10388000BFF34F8F0A4A13680133012B136000D036
:103890007047084B1B6813F0FF0FF9D04FF050032F
:1038A00083F31188BFF36F8FBFF34F8FFEE700BF25
:1038B0000800002004ED00E0084A136843B94FF007
:1038C000500383F31188BFF36F8FBFF34F8FFEE771
:1038D000013B13600BB983F3118870470800002087
:1038E000EFF30980BFF36F8F0D4B1A6820E9F00FDB
:1038F00010602DE908404FF0500080F31188FFF769
:1039000041FB4FF0000080F31188BDE808401968C2
:103910000868B0E8F00F80F30988BFF36F8F704735
:103920003000002008B54FF0500383F31188BFF337
:103930006F8FBFF34F8FFFF7CFF918B14FF0805261
:10394000024B1A60002383F3118808BD04ED00E0E8
:103950000721064B064A1B680648A2FB0323064ABA
:103960009B09013B03601160704700BF0C00002001
:10397000D34D621014E000E010E000E010B5FF212C
:103980000724204B20481A7882B0D2B201924460BA
:1039900019701B78DBB28DF803309DF803309DF869
:1039A000032003F050031206037011D5062200E035
:1039B0000A469DF80330511E5B00DBB28DF80330E0
:1039C0009DF803301B06F3D4130203F4E06301E017
:1039D0004FF4E06301990B4C0C4AC9B22170116895
:1039E000436041F470011160136843F07043136049
:1039F000FFF7AEFF0022064B1A60FFF705FFFFF747
:103A0000EBFE00BF00E400E09401002020ED00E0A8
:103A100008000020EFF305820F2A11D8104B11493E
:103A20005A680B6803F4E063934208D94FF05003DF
:103A300083F31188BFF36F8FBFF34F8FFEE770479B
:103A40000949074B525C19789142E8D94FF050036D
:103A500083F31188BFF36F8FBFF34F8FFEE700BF73
:103A6000940100200CED00E0F0E300E0114B30B4D5
:103A70001D461A68824201D21346FAE75C6819199A
:103A8000884203D1416818462144596044680119AD
:103A90008A4208D1A9688A4205D0D2E9005121445E
:103AA000C0E9005100E00260984218BF186030BCC5
:103AB000704700BF9C010020F8B5414D0446FFF758
:103AC000FBF8AA68002A57D0D5F80C6C34424ED1C6
:103AD000002C4CD004F1080358071CBF23F0070347
:103AE0000833002B43D0D5F8147C9F423FD32C6879
:103AF000DFF8CCC003E0206820B1A446044661682A
:103B00009942F8D3944232D02068CA1A102ACCF8CD
:103B1000000010D9E018410708D04FF0500383F39C
:103B20001188BFF36F8FBFF34F8FFEE74260636072
:103B3000FFF79CFF61680023D5F8102C7F1A3143F2
:103B40009742C4E9003104F1080438BFC5F8107C7D
:103B5000C5F8147CFFF742F963070BD04FF0500310
:103B600083F31188BFF36F8FBFF34F8FFEE7FFF72B
:103B700035F900242046F8BD05F10C02560705D0A2
:103B800005F1130323F00703194601E0134611461C
:103B90004FF00047002002F6F83222F00702D31A55
:103BA000C5E900103E46C2E90000C5F8103CC5F862
:103BB000143CAA60C5F80C7CC1E9002386E700BF6D
:103BC0009C010020E0B138B5194D50F8043CD5F8FF
:103BD0000C2C134208D14FF0500383F31188BFF32C
:103BE0006F8FBFF34F8FFEE750F8081C49B14FF0BD
:103BF000500383F31188BFF36F8FBFF34F8FFEE73E
:103C00007047044623EA020340F8043CFFF754F8E7
:103C1000D5F8142C54F8043CA4F108001344C5F85A
:103C2000143CFFF723FFBDE83840FFF7D7B800BFCB
:103C30009C01002003462DE9F0470024DFF8B491F1
:103C40004278DFF8B481694E4846177893F800A0AF
:103C5000674DFDF70DF94046FDF70AF93046FDF7CF
:103C600007F92846FDF704F93268D9F800305462A4
:103C70005C622A68D8F8003054625C623B1B18BF53
:103C80000123BAF1010F3DD0BAF1020F2FD0BAF1E2
:103C9000030F64D0BAF1060F53D0BAF1040F75D0F8
:103CA000BAF1050FDFF854A139D18AF80530002F99
:103CB00040F0938039464846FDF7A4F94846042170
:103CC000FDF7A0F99AF80030012B2CD100214848CB
:103CD000FDF798F900214648FDF7F8FC002144481B
:103CE000FDF768F900214248FDF7DAFC1BE0DFF838
:103CF0000CA130468AF801300421002FE0D0FDF7F6
:103D000059F90CE0DFF8F4A08AF80030AFBB39466F
:103D10002846FDF777F939462846FDF7D7FC9AF88B
:103D20000030012BD2D03348FDF792F83248FDF72E
:103D30008FF82E48FDF78CF8BDE8F0472C48FDF7CA
:103D400087B8DFF8B8A08AF80630EFBB0821304604
:103D5000FDF758F930460C21FDF754F9DFE7DFF89D
:103D60009CA08AF80230FFB908214046FDF74AF9C5
:103D700040460C21FDF746F9D1E721462846FDF7DC
:103D800019F921462846FDF78BFCC8E7DFF86CA03F
:103D90008AF803307FB908214846FDF733F94846D1
:103DA0000C21FDF72FF9BAE70C214046FDF702F987
:103DB00040460821A3E70C214846FDF7FBF848469A
:103DC0000821FDF7F7F8AAE70C213046FDF7F2F8D5
:103DD00030460821FDF7EEF8A1E704214846FDF73B
:103DE000E9F821464846FDF7E5F898E7000E00207F
:103DF000B80F0020F80F0020400E0020C40E002055
:103E00002DE9F843DFF81481414F0446414E404606
:103E1000FDF72EF8404D3846FDF72AF83046FDF7FD
:103E200027F82846FDF724F80020D8F8003032683B
:103E30003968D5F800C050625862CCF82400486256
:103E400094F8019094F800E040464EEA092ECCF830
:103E50002CE094F8038094F802E04EEA082ECCF8A7
:103E600034E094F803E094F802C04CEA0E2CC1F858
:103E70002CC094F805E094F804C04CEA0E2CC1F86C
:103E80003CC094F807E094F806C04CEA0E2CC1F848
:103E900040C094F809C0217A41EA0C21D96294F813
:103EA00009C0217A41EA0C21D16294F80BC0A17AB1
:103EB00041EA0C21916394F80DC0217B41EA0C2169
:103EC000D16394F80FC0A17B41EA0C211164617C9D
:103ED000227C42EA0122DA63E17CA27C42EA0122EE
:103EE0001A64617D227D42EA01225A63E17DA27D4E
:103EF00042EA01229A63FCF7ABFF3846FCF7A8FFC1
:103F00003046FCF7A5FF2846BDE8F843FCF7A0BF04
:103F1000400E0020000E0020B80F0020F80F0020F7
:103F200008B500F05FFBBDE8084000F0ABBB00BF88
:103F300030B500234FF48032012502244FF4802154
:103F400091B006A808930193CDE90933CDE90B336D
:103F5000CDE90233CDE90433CDE90652CDE90D4276
:103F60000F91FCF715FC00B1FEE703460F2201A8F4
:103F70001946CDE90243CDE904330192FCF7F0FD87
:103F800000B1FEE711B030BD00244FF0040A80B547
:103F90004FF4805701264FF002099EB0FCF738F924
:103FA000FFF7C6FFCDE91744CDE91944A94D2246D4
:103FB000AB69142143F02003AB61AB69A64803F061
:103FC00020030293029BAB694FF0800843EA0A0387
:103FD000AB61AB6903EA0A030393039BAB6943F04C
:103FE0000803AB61AB6903F008030493049BFCF77F
:103FF000CBFB224639469948FCF7C6FB17A99648E1
:104000001994CDE917A6CDF86890FCF7CDFA17A959
:104010009248CDE91864CDF868901797FCF7C4FA78
:104020001022112317A98C48CDE91723CDE919498E
:10403000FCF7BAFA6B69224633436B616B69052161
:10404000334001930E20019BFCF712F90E20FCF780
:1040500045F941F28932824D824B284607940B94F0
:1040600005941094CDE91744CDE91944CDE91B44DA
:104070001D94CDE908440A94CDE90C44CDE90E44E1
:104080000694CDE91144CDE91344CDE91544C5E9C1
:104090000164C5E90444EA602B60C5F81880FCF7A8
:1040A0005BFE00B1FEE707A928460797FDF710F968
:1040B00000B1FEE72846FCF701FF034600B1FEE72A
:1040C0000BA92846CDE90B33FDF7C4F9034600B12F
:1040D000FEE705A92846CDE90538FDF74DFB00B1FF
:1040E000FEE7602340F6C4190246CDE91200CDE98F
:1040F0001400169010A92846CDE91039FCF7C4FF2A
:1041000000B1FEE74FF40053CDE91700CDE9190ADD
:104110001B901D9017A928461C93FDF703FB04462E
:1041200000B1FEE72846504D00F0BCFD4F4B28463D
:10413000CDE90B44CDE90D44CDE91044CDE912445D
:104140001494CDE90744CDE91744CDE91944CDE9EC
:104150001B441D946E60C5E902492C61C5F81880A6
:104160002B60FCF7F9FD00B1FEE70BA928460B9781
:10417000FDF7AEF800B1FEE72846FCF79FFE00B160
:10418000FEE70625002310A93748CDE91053FDF7B7
:1041900061F900B1FEE78023079007A93248089330
:1041A000FDF7EAFA00B1FEE760214FF4FA6402235A
:1041B0001B901791082217A92B4818941993FCF704
:1041C00063FF00B1FEE740F6980319900C2217A98F
:1041D00025481893FCF758FF044600B1FEE7224833
:1041E00000F060FD4FF416564FF400510C22204BA6
:1041F0002048C3E90164186018461C61C3E90644FD
:10420000D9605A61FDF7E2FA00B1FEE74FF0804154
:1042100001224EF66023184CCDE90B00CDE90D00CC
:10422000CDE91000CDE912001490CDE90700CDE9E9
:104230001700CDE91900CDE91B001D90A060206199
:10424000A061204621606260E360FCF785FDA8B1B3
:10425000FEE700BF00100240000C014000080140D2
:10426000B80F0020002C0140400E00200004004048
:10427000780F002000380140F80F00204FF48053E1
:104280000BA920460B93FDF723F800B1FEE720466B
:10429000FCF714FE034600B1FEE710A92046119377
:1042A0001095FDF7D7F8034600B1FEE7204607A9B1
:1042B000CDE90733FDF760FA00B1FEE70023602780
:1042C00041F2883502241A4617A95C481B93CDE9B0
:1042D00017751994FCF7D8FE00B1FEE742F210738F
:1042E0001990042217A955481893FCF7CDFE00B188
:1042F000FEE7082217A951481994FCF7C5FE00B142
:10430000FEE743F6982319900C2217A94B481893FF
:10431000FCF7BAFE044600B1FEE7484800F0C2FCD4
:1043200001264EF67723464D464A2846CDE90B44F2
:10433000CDE90D44CDE91044CDE912441494CDE902
:104340000744CDE91744CDE91944CDE91B441D9438
:10435000C5E901642C61AC612A60EB60FCF7FCFCF0
:1043600000B1FEE74FF480530BA928460B93FCF7EE
:10437000AFFF00B1FEE72846FCF7A0FD034600B101
:10438000FEE710A92846CDE91033FDF763F800B128
:10439000FEE78023079007A928460893FDF7ECF96C
:1043A000034600B1FEE728461A4617A91797CDE93C
:1043B00018631B93FCF768FE00B1FEE744F6206427
:1043C0000223042217A91E48CDE91843FCF75CFE1E
:1043D00000B1FEE743F69823082217A9184818935E
:1043E000FCF752FE034600B1FEE70C2217A9144861
:1043F000CDE91843FCF748FE064600B1FEE7104839
:1044000000F050FC0D48FCF723FD0F48FCF720FDA1
:104410000E4D0B48FCF71CFD17AC0D48FCF718FDC2
:104420000FCD0FC42B68314617A82360FDF70CFD94
:10443000084B1860FDF702FDFEE700BFF80F0020F3
:10444000000E002000080040400E0020AC50000884
:10445000B80F0020FC0D00200268034B9A4200D0E8
:104460007047FBF7E1BE00BF00140040FEE700BF4D
:10447000024AD3786FF30713D3707047CC0E002035
:1044800038B54049CB781B09012B1ED13E4C3F4D1E
:104490002B780133DBB2052B2B700DD900224FF4A2
:1044A00080513B48FCF770F9002323712B780A2BCD
:1044B00084BF00232B7038BD01224FF48051344853
:1044C000FCF762F901232371F0E70E20CC230125CC
:1044D0000022088181F85C300B892B4CDBB281F81B
:1044E0005D300B8920781B0A81F85E30637881F893
:1044F0005F5081F86000A57881F86130E078237919
:1045000081F8625081F86300657981F86430A079A0
:10451000E37981F8655081F8660081F8673091F899
:104520005C3091F85D0091F85E50034491F85F00B3
:104530002B4491F86050034491F861002B4491F8AA
:104540006250034491F863002B4491F86450034493
:1045500091F865002B4491F86650034491F8670088
:104560002B44034403F0FF0383F0AA0081F8683072
:1045700081F86900CA800A8906485C31FDF7CEFAE5
:1045800085E700BFCC0E0020C40E0020B40D002033
:1045900000080140780F002030B5104A83B0D3786E
:1045A00013F00F0406D00321D37861F30303D37013
:1045B00003B030BD0A4D00942346224603212868EB
:1045C000FFF7D8F82D68FEF781FB009402462346DA
:1045D00028460221FFF7CEF803B030BDCC0E0020F4
:1045E0003C10002010B5124C82B0E37821466FF3E6
:1045F000030301220F48E370FDF766FA00230E491A
:104600001A4600910D484FF4FA71FFF769F80C4A09
:104610000C4B1060C8210093012200230A48FFF7C9
:104620005FF80A490A4B0B4A08609A6202B010BD53
:10463000CC0E0020780F002099450008F4500008A7
:104640003C10002081440008005100083810002070
:10465000800E002071440008084B9A884E2A08D822
:104660009A8819781A44C9B211739A88013292B2A1
:104670009A80012201490248FDF726BACC0E00209B
:10468000780F00202DE9F04FAF4B83B01C68FEF788
:104690001DFB4FF47A73024600932046002301214C
:1046A000FFF768F80128A94D03D02B68002B00F014
:1046B0004181A74CA74F04F15C0604F1100894F85F
:1046C000039019F00F0945D1A3889BB2002B00F08D
:1046D0002981A38828689BB21BB1237BCC2B40F097
:1046E000E3804FF0010A4FF0000994F803C04B46F5
:1046F0006AF3030CCDF800904A4684F803C0032106
:10470000A4F80A90FFF736F8D5F800B0FEF7DEFA05
:104710004B46024602215846CDF80090FFF72AF892
:10472000D5F800B0FEF7D2FACDF8009002464B461D
:1047300051465846FFF71EF85045C0D02B68002B55
:10474000BDD14FF0500383F31188BFF36F8FBFF3D8
:104750004F8FFEE7E37803F00F03012B36D0E378A9
:1047600003F00F03022B1FD094F803A0CAF3030A2F
:104770005FFA8AF103293ED0E37803F00F03042B9C
:1047800000F07E81E37803F00F03052B00F07481C5
:10479000E37803F00F03062B91D10022A280E37887
:1047A00062F30303E3708AE7A38862899A4200F206
:1047B000BD80002328681A4600930321FEF7DAFF24
:1047C0000422E37862F30303E37078E7A388032B02
:1047D00066D9637BA27B03EB02239BB2052B40F2DD
:1047E00010814A2B00F2B88002226381E37862F3E1
:1047F0000303E37063E74FF00009A4F8049094F812
:1048000003C04B4669F3030C4A46CDF80090286874
:1048100084F803C0FEF7AEFFD5F800B0FEF756FAF5
:10482000CDF8009002464B4658460221FEF7A2FF03
:10483000E27812097FF443AFE3781B09012B3FF4C0
:104840003EAFCC2307200621208184F85C302389E9
:10485000DBB284F85D3023891B0A84F85E3084F86B
:104860005FA084F8601094F85C3094F85D0094F8D0
:104870005E10034494F85F000B4494F86010034406
:104880000B4403F0FF0383F0AA0184F8613084F83D
:104890006210E280228931463846FDF73FF90EE783
:1048A0000320FDF7EBFA0AE7A4F8049094F803C09C
:1048B0004B4669F3030C4A460321CDF8009084F877
:1048C00003C0FEF757FFD5F800A0FEF7FFF9CDF8BB
:1048D000009002464B4650460221FEF74BFFE2781D
:1048E00012097FF4ECAEE3781B09012B3FF4E7AE2D
:1048F000CC234FF0070C03200121A4F808C084F852
:104900005C302389DBB284F85D3023891B0A84F88C
:104910005E3084F85F0084F8601094F85C0094F8CE
:104920005D30A4E70420FDF7A9FAC8E60A20FDF7E8
:10493000A5FAC4E64FF0500383F31188BFF36F8FDD
:10494000BFF34F8FFEE700BF381000203C1000205F
:10495000CC0E0020780F00204FF00009A4F804903E
:1049600094F803C04B4669F3030C4A460321CDF883
:104970000090286884F803C0FEF7FCFED5F800A07C
:10498000FEF7A4F9CDF8009002464B4650460221AE
:10499000FEF7F0FEE27812097FF491AEE3781B098E
:1049A000012B3FF48CAE0721CC230320218131461B
:1049B00084F85C302389DBB284F85D3023891B0ADC
:1049C00084F85E3084F85F0084F8600094F85C300E
:1049D00094F85DE094F85EC094F85F00F444844479
:1049E00094F8600060440344DBB283F0AA0084F8CA
:1049F000613084F86200E28022893846FDF78EF843
:104A00005DE64FF00009A4F8049094F803C04B460B
:104A100069F3030C4A460321CDF80090286884F816
:104A200003C0FEF7A7FED5F800A0FEF74FF9CDF8BA
:104A3000009002464B4650460221FEF79BFEE2786C
:104A400012097FF43CAEE3781B09012B3FF437AE2B
:104A5000CC234FF0070C0320A4F808C084F85C3086
:104A600023890221DBB284F85D3023891B0A84F894
:104A70005E3084F85F00F4E60220FDF7FFF91EE6E1
:104A80004FF0000903214B46CDF800904A462868B4
:104A9000FEF770FE6389022B4B4609D94A46A118DE
:104AA000087B61890132023903449142DBB2F6DCB2
:104AB000628983F0AA01023A2244127B28689A4252
:104AC00005D16389013B23441B7B8B4239D04FF0D6
:104AD0000009A4F8049094F803C04B4669F3030C52
:104AE0004A460321CDF8009084F803C0FEF742FE49
:104AF000D5F800A0FEF7EAF8CDF8009002464B4644
:104B000050460221FEF736FEE27812097FF4D7AD57
:104B1000E3781B09012B3FF4D2AD0721CC234FF0E2
:104B2000030C218184F85C3023890420DBB284F8F3
:104B30005D30238931461B0A84F85E3084F85FC0FB
:104B400042E74FF0050A4FF0000994F803C04B46C6
:104B50006AF3030C4A460321CDF8009084F803C0A1
:104B6000FEF708FED5F800B0FEF7B0F84B46024657
:104B70000221CDF800905846FEF7FCFDE3786AF379
:104B80000303E370E37B6189DBB20639022B89B250
:104B90000AD0042B02D14046FFF732F90622E3780F
:104BA00062F30303E3708AE54046FFF743F8F5E755
:104BB000114B10B5986982B040F0010098619C6972
:104BC000002204F001040094009CDC690F2144F0F1
:104BD0008054DC61DB696FF0010003F080530193C6
:104BE000019BFBF745FB054A536823F0E06343F064
:104BF0000073536002B010BD00100240000001407D
:104C000010B50368234A84B093422DD0B3F1804F8E
:104C100011D0214A93421BD0204A934209D1204B04
:104C2000DA6942F00402DA61DB6903F004030393FA
:104C3000039B04B010BD03F50433DA6942F00102AE
:104C4000DA61DB6903F001030193019B04B010BD3D
:104C5000134BDA6942F00202DA61DB6903F0020306
:104C60000293029B04B010BD00220D4B11469C69BB
:104C70001A2044F400649C619B6903F40063009370
:104C8000009BFBF7F5FA1A2004B0BDE81040FBF7D3
:104C900025BB00BF002C014000040040000800407C
:104CA00000100240002330B502684B4989B08A42A7
:104CB000CDE90433CDE906332CD0B2F1804F4CD08E
:104CC000464B9A4268D0464B9A4201D009B030BD5B
:104CD0004FF4E070022403F502339A6904A942F00C
:104CE00008029A619B69049003F0080303933D480E
:104CF000039B05940794FBF757FC4FF400741222B2
:104D0000032304A93748CDE904420793FBF74CFC81
:104D100009B030BD4FF4C0700225032403F1804375
:104D200003F504339A6904A942F004029A619B696D
:104D3000049003F0040300932B48009B059507940F
:104D4000FBF732FC294A536823F0C00343F0E063C9
:104D500043F04003536009B030BD05210324022510
:104D6000234B21489A6942F004029A619B6904919D
:104D700003F00403019304A9019B05950794FBF735
:104D800013FC0A22122304A917480794CDE904232F
:104D9000FBF70AFC09B030BD01210225032403F50D
:104DA00003339A690F4842F008029A619B690491A3
:104DB00003F00803029304A9029B05950794FBF7EF
:104DC000F3FB122304A90748049507940593FBF706
:104DD000EBFB09B030BD00BF002C014000040040D7
:104DE00000080040000C01400008014000000140A4
:104DF0000010024070B500240268294B86B09A4228
:104E0000CDE90244CDE9044401D006B070BD4FF4B1
:104E1000007106460220032503F558439A6942F4BF
:104E200080429A619A6902F480420092009A9A69DB
:104E300042F004029A619B69029103F0040301931A
:104E400002A903901748019B0595FBF7ADFB4FF4B2
:104E5000806302A913480293CDE90344FBF7A4FB46
:104E600010218023104D114A28466960AC60C5E9C5
:104E70000444C5E906442A60EB60FBF73BFA58B9E5
:104E800000220521356325206E62FBF7F1F925200C
:104E9000FBF724FA06B070BDFFF7E8FAF0E700BFB1
:104EA0000038014000080140800E0020440002400C
:104EB00010B5014688B000223720FBF7D9F937201A
:104EC000FBF70CFA154B01A9DA6903A842F020029E
:104ED000DA61DB69124C03F020030293029BFBF7BB
:104EE0001FFFFBF7FDFE40F2E73100220D4BE160B2
:104EF000A3FB00130C499B0C013B2046C4E90013A3
:104F00002261A260FBF728FF10B1012008B010BD9C
:104F10002046FBF7C5FF08B010BD00BF00100240DF
:104F20004010002083DE1B4300140040704700BF88
:104F3000FEE700BFFEE700BFFEE700BFFEE700BFE1
:104F4000704700BF0148FBF799BA00BF800E0020F0
:104F50000148FCF7FBBA00BFB80F00200148FCF77E
:104F6000A1BE00BF780F00200148FCF7EFBA00BFD8
:104F70004010002030B44FF000604FF41F050024B3
:104F80000E4B0F4A196841F00101196059680A4037
:104F90005A601A680B4922F0847222F480321A6037
:104FA0001A6822F480221A605A6822F4FE025A60BB
:104FB0009D60DC62886030BC704700BF001002401A
:104FC0000000FFF800ED00E0002103E00B4B5B5810
:104FD000435004310A480B4B42189A42F6D30A4A0E
:104FE00002E0002342F8043B084B9A42F9D3FFF752
:104FF000C1FF00F00FF8FEF7C7FF7047145100081B
:105000000000002010000020100000208010002070
:10501000FEE7000070B500250C4E0D4CA41BA4103B
:10502000A54209D100F026F800250A4E0A4CA41B1F
:10503000A410A54205D170BD56F82530984701351A
:10504000EEE756F8253098470135F2E70C51000895
:105050000C5100080C5100081051000810B5431EF7
:105060000A44914200D110BD11F8014B03F8014FE1
:10507000F7E70000F8B500BFF8BC08BC9E467047D3
:0C508000F8B500BFF8BC08BC9E467047A5
:10508C0002030405060708090A0B0C0D0E0F10107D
:10509C000102030405060708090A0B0C0D0E0F107C
:1050AC00E8500008213F000800000000000000004C
:1050BC00800000000000000000000000010203045A
:1050CC00060708090000000001020304546D725128
:1050DC0000000000546D72205376630064656661B5
:1050EC00756C745461736B0052782054696D656FE4
:1050FC0075740000547820537461746500000000CE
:04510C00F5010008A1
:04511000D1010008C1
:105114000100000010000000AAAAAAAA00366E012D
:0400000508004FC9D7
:00000001FF
