:020000040800F2
:1000000000200020657200087571000881710008E9
:10001000877100088D7100089371000800000000CE
:100020000000000000000000000000002153000854
:100030009971000800000000D1540008195500080B
:10004000AD720008AD720008AD720008AD72000814
:10005000AD720008AD720008AD720008AD72000804
:10006000AD720008AD720008AD720008AD720008F4
:10007000AD720008AD720008A5710008AD720008ED
:10008000AD720008AD720008AD72000800000000FB
:10009000000000000000000000000000AD72000839
:1000A000AD720008AD720008B9710008AD720008A9
:1000B000AD720008AD720008AD720008AD720008A4
:1000C000AD7200080000000000000000AD720008E2
:1000D000AD720008CD710008AD720008AD72000865
:1000E000AD720008AD720008AD720008000000009B
:1000F0000000000000000000000000000000000000
:1001000000000000000000000000000000000000EF
:100110000000000000000000AD720008E17100085E
:1001200000000000000000000000000000000000CF
:1001300000000000000000000000000000000000BF
:1001400000000000000000000000000000000000AF
:10015000000000000000000000000000000000009F
:10016000000000000000000000000000000000008F
:10017000000000000000000000000000000000007F
:10018000000000000000000000000000000000006F
:10019000000000000000000000000000000000005F
:1001A000000000000000000000000000000000004F
:1001B000000000000000000000000000000000003F
:1001C0000000000000000000000000005FF808F1DF
:1001D00010B5054C237833B9044B13B10448AFF381
:1001E00000800123237010BD1000002000000000DB
:1001F0002073000808B5034B1BB103490348AFF354
:10020000008008BD000000001400002020730008DA
:1002100080B500AF032000F0CBF8002006F054FFBB
:1002200006F06EFD0023184680BD000080B400AFCC
:10023000054B1B781A46054B1B681344034A136091
:1002400000BFBD4680BC704704000020B80D0020F0
:1002500080B400AF024B1B681846BD4680BC704797
:10026000B80D002080B485B000AF78607B6803F0E3
:100270000703FB600C4BDB68BB60BA684FF6FF03FB
:100280001340BB60FB681A02BB68134343F0BF63B3
:1002900043F40033BB60044ABB68D36000BF14372B
:1002A000BD4680BC704700BF00ED00E080B400AFE9
:1002B000044BDB681B0A03F007031846BD4680BCED
:1002C000704700BF00ED00E080B483B000AF03468C
:1002D000FB71FB7903F01F02064997F907305B09B0
:1002E000012000FA02F241F8232000BF0C37BD467E
:1002F00080BC704700E100E080B483B000AF0346EB
:100300003960FB7197F90730002B0BDA3B68DAB2E2
:100310000C49FB7903F00F03043B1201D2B20B44EA
:100320001A7609E03B68DAB2074997F907301201FB
:10033000D2B20B4483F8002300BF0C37BD4680BC0B
:10034000704700BF00ED00E000E100E080B489B03C
:1003500000AFF860B9607A60FB6803F00703FB61E7
:10036000FB69C3F10703042B28BF0423BB61FB69AE
:100370000433062B02D9FB69033B00E000237B61B9
:100380004FF0FF32BB6902FA03F3DA43BB681A404D
:100390007B699A404FF0FF317B6901FA03F3D9433F
:1003A0007B680B40134318462437BD4680BC70471A
:1003B00080B582B000AF78607868FFF753FF00BF68
:1003C0000837BD4680BD80B586B000AF0346B96032
:1003D0007A60FB7300237B61FFF768FF78617A68BE
:1003E000B9687869FFF7B2FF024697F90F301146F6
:1003F0001846FFF781FF00BF1837BD4680BD80B5A6
:1004000082B000AF0346FB7197F907301846FFF73B
:100410005BFF00BF0837BD4680BD000080B485B0DB
:1004200000AF78600023FB607B68002B01D10123C3
:1004300043E07B681B681A46224B1344224AA2FB06
:1004400003231B099A007B681A647B681F4ADA63DE
:100450007B68022283F821207B681B681B68FB6095
:10046000FB6823F47F5323F03003FB607B685A68FA
:100470007B689B681A437B68DB681A437B681B694F
:100480001A437B685B691A437B689B691A437B68E4
:10049000DB691343FA681343FB607B681B68FA68E7
:1004A0001A607B6800229A637B68012283F821200E
:1004B0007B68002283F82020002318461437BD46AD
:1004C00080BC7047F8FFFDBFCDCCCCCC0000024013
:1004D00080B586B000AFF860B9607A603B600023F9
:1004E000FB75FB6893F82030012B01D102234AE011
:1004F000FB68012283F82020FB6893F82130012B50
:100500003AD1FB68022283F82120FB6800229A631B
:10051000FB681B681A68FB681B6822F001021A60FE
:100520003B687A68B968F86800F0AEF9FB68DB6A86
:10053000002B08D0FB681B681A68FB681B6842F038
:100540000E021A600FE0FB681B681A68FB681B68E4
:1005500022F004021A60FB681B681A68FB681B68BB
:1005600042F00A021A60FB681B681A68FB681B6885
:1005700042F001021A6005E0FB68002283F82020A7
:100580000223FB75FB7D18461837BD4680BD000071
:1005900080B584B000AF78600023FB737B6893F86C
:1005A0002130022B05D07B6804229A630123FB7360
:1005B00051E07B681B681A687B681B6822F00E029A
:1005C0001A607B681B681A687B681B6822F001024E
:1005D0001A607B681B68224A934229D07B681B689B
:1005E000204A934222D07B681B681F4A93421AD04C
:1005F0007B681B681D4A934212D07B681B681C4AAB
:1006000093420AD07B681B681A4A934202D14FF486
:1006100080130EE04FF080730BE04FF4803308E05E
:100620004FF4805305E04FF4807302E0102300E0A4
:100630000123114A53607B68012283F821207B68E3
:10064000002283F820207B685B6B002B03D07B6843
:100650005B6B78689847FB7B18461037BD4680BDBA
:10066000080002401C0002403000024044000240EA
:10067000580002406C0002400000024080B584B087
:1006800000AF78607B68DB6B1B68FB607B681B6876
:100690001B68BB607B681B6C04229A40FB6813409C
:1006A000002B4FD0BB6803F00403002B4AD07B68BB
:1006B0001B681B6803F02003002B07D17B681B68B5
:1006C0001A687B681B6822F004021A607B681B684A
:1006D000664A934229D07B681B68654A934222D0C0
:1006E0007B681B68634A93421AD07B681B68624A26
:1006F000934212D07B681B68604A93420AD07B68A1
:100700001B685F4A934202D14FF480030EE04FF022
:1007100080630BE04FF4802308E04FF4804305E052
:100720004FF4806302E0402300E00423554A536005
:100730007B68DB6A002B00F094807B68DB6A78685A
:1007400098478EE07B681B6C02229A40FB6813403E
:10075000002B56D0BB6803F00203002B51D07B68FE
:100760001B681B6803F02003002B0BD17B681B6800
:100770001A687B681B6822F00A021A607B680122F3
:1007800083F821207B681B68384A934229D07B6814
:100790001B68374A934222D07B681B68354A9342D4
:1007A0001AD07B681B68344A934212D07B681B685E
:1007B000324A93420AD07B681B68314A934202D185
:1007C0004FF400130EE04FF000730BE04FF40033D2
:1007D00008E04FF4005305E04FF4007302E02023DB
:1007E00000E00223274A53607B68002283F8202020
:1007F0007B689B6A002B34D07B689B6A786898473B
:100800002FE07B681B6C08229A40FB681340002B8A
:1008100028D0BB6803F00803002B23D07B681B683B
:100820001A687B681B6822F00E021A607B681A6CDB
:100830007B68DB6B012101FA02F25A607B680122BE
:100840009A637B68012283F821207B68002283F869
:1008500020207B681B6B002B04D07B681B6B7868A7
:10086000984700BF00BF1037BD4680BD080002405A
:100870001C00024030000240440002405800024088
:100880006C0002400000024080B485B000AFF86008
:10089000B9607A603B60FB681A6CFB68DB6B012116
:1008A00001FA02F25A60FB681B683A685A60FB68FA
:1008B0005B68102B08D1FB681B687A689A60FB683C
:1008C0001B68BA68DA6007E0FB681B68BA689A6060
:1008D000FB681B687A68DA6000BF1437BD4680BCCD
:1008E0007047000080B48BB000AF7860396000239F
:1008F000FB610023BB6100237B6100233B6200237B
:100900003B6100237B6227E101227B6A02FA03F349
:10091000FB613B681B68FA691340BB61BA69FB69FC
:100920009A4240F016813B685B68122B34D0122B40
:100930000DD8022B2BD0022B04D8002B31D0012B49
:100940001CD048E0032B43D0112B1BD043E0874A37
:10095000934226D0854A934206D8854A934220D0B6
:10096000844A93421DD036E0834A934219D0834A89
:10097000934216D0824A934213D02CE03B68DB6846
:100980003B6228E03B68DB6804333B6223E03B6862
:10099000DB6808333B621EE03B68DB680C333B627C
:1009A00019E03B689B68002B02D104233B6212E0F4
:1009B0003B689B68012B05D108233B627B68FA6981
:1009C0001A6108E008233B627B68FA695A6102E019
:1009D00000233B6200BFBB69FF2B01D87B6801E0AD
:1009E0007B680433FB60BB69FF2B02D87B6A9B00EA
:1009F00002E07B6A083B9B003B61FB681A680F21A1
:100A00003B6901FA03F3DB431A40396A3B6901FA97
:100A100003F31A43FB681A603B685B6803F080537A
:100A2000002B00F09680574B9B69564A43F0010318
:100A30009361544B9B6903F00103BB60BB68524A4E
:100A40007B6A9B08023352F823307B617B6A03F098
:100A500003039B000F2202FA03F3DB437A6913407E
:100A60007B617B68494A934213D07B68484A934232
:100A70000DD07B68474A934207D07B68464A934231
:100A800001D1032306E0042304E0022302E0012352
:100A900000E000237A6A02F00302920093407A6930
:100AA00013437B6138497B6A9B0802337A6941F8BA
:100AB00023203B685B6803F48033002B06D0374B60
:100AC0001A683649BB6913430B6006E0334B1A685A
:100AD000BB69DB43314913400B603B685B6803F43F
:100AE0000033002B06D02D4B5A682C49BB691343A9
:100AF0004B6006E0294B5A68BB69DB43274913402A
:100B00004B603B685B6803F48013002B06D0234BDB
:100B10009A682249BB6913438B6006E01F4B9A68B1
:100B2000BB69DB431D4913408B603B685B6803F482
:100B30000013002B06D0194BDA681849BB69134320
:100B4000CB6006E0154BDA68BB69DB431349134001
:100B5000CB607B6A01337B627B6A0F2B7FF6D4AE5E
:100B600000BF2C37BD4680BC704700BF000021107D
:100B700000001110000012100000311000003210AF
:100B80000000221000100240000001400008014057
:100B9000000C01400010014000140140000401401D
:100BA00080B483B000AF78600B467B8013467B70C7
:100BB0007B78002B03D07A887B681A6103E07B88FE
:100BC0001A047B681A6100BF0C37BD4680BC7047B1
:100BD00080B586B000AF786000233B617B681B68FE
:100BE00003F00103002B00F08780924B5B6803F059
:100BF0000C03042B0CD08F4B5B6803F00C03082B09
:100C000012D18C4B5B6803F48033B3F5803F0BD17A
:100C1000884B1B6803F40033002B6CD07B685B6847
:100C2000002B68D101232DE27B685B68B3F5803F20
:100C300006D1804B1B687F4A43F4803313602EE05B
:100C40007B685B68002B0CD17A4B1B68794A23F4D4
:100C500080331360774B1B68764A23F4802313603C
:100C60001DE07B685B68B3F5A02F0CD1714B1B684E
:100C7000704A43F4802313606E4B1B686D4A43F443
:100C8000803313600BE06B4B1B686A4A23F480339C
:100C90001360684B1B68674A23F4802313607B68EA
:100CA0005B68002B13D0FFF7D3FA386108E0FFF739
:100CB000CFFA02463B69D31A642B01D90323E1E141
:100CC0005C4B1B6803F40033002BF0D014E0FFF7FB
:100CD000BFFA386108E0FFF7BBFA02463B69D31A56
:100CE000642B01D90323CDE1524B1B6803F400337D
:100CF000002BF0D100E000BF7B681B6803F002030B
:100D0000002B63D04B4B5B6803F00C03002B0BD024
:100D1000484B5B6803F00C03082B1CD1454B5B6808
:100D200003F48033002B16D1424B1B6803F00203FF
:100D3000002B05D07B681B69012B01D00123A1E1A9
:100D40003C4B1B6823F0F8027B685B69DB00394988
:100D500013430B603AE07B681B69002B20D0364BB5
:100D600001221A60FFF774FA386108E0FFF770FAA1
:100D700002463B69D31A022B01D9032382E12D4B92
:100D80001B6803F00203002BF0D02A4B1B6823F0F2
:100D9000F8027B685B69DB00264913430B6015E0B2
:100DA000254B00221A60FFF753FA386108E0FFF77D
:100DB0004FFA02463B69D31A022B01D9032361E1A2
:100DC0001C4B1B6803F00203002BF0D17B681B68EF
:100DD00003F00803002B39D07B689B69002B19D0E6
:100DE000164B01221A60FFF733FA386108E0FFF76B
:100DF0002FFA02463B69D31A022B01D9032341E1A2
:100E00000C4B5B6A03F00203002BF0D0012000F0D2
:100E1000DFFA1BE0094B00221A60FFF719FA38616C
:100E20000EE0FFF715FA02463B69D31A022B07D9E9
:100E3000032327E1001002400000424280044242A6
:100E4000924B5B6A03F00203002BEAD17B681B68BC
:100E500003F00403002B00F0A6800023FB758B4BEE
:100E6000DB6903F08053002B0DD1884BDB69874A87
:100E700043F08053D361854BDB6903F08053FB6003
:100E8000FB680123FB75824B1B6803F48073002B06
:100E900018D17F4B1B687E4A43F480731360FFF7C1
:100EA000D7F9386108E0FFF7D3F902463B69D31A56
:100EB000642B01D90323E5E0754B1B6803F48073B1
:100EC000002BF0D07B68DB68012B06D16F4B1B6ACF
:100ED0006E4A43F0010313622DE07B68DB68002B50
:100EE0000CD16A4B1B6A694A23F001031362674BFA
:100EF0001B6A664A23F0040313621CE07B68DB680C
:100F0000052B0CD1614B1B6A604A43F0040313624A
:100F10005E4B1B6A5D4A43F0010313620BE05B4BBF
:100F20001B6A5A4A23F001031362584B1B6A574A43
:100F300023F0040313627B68DB68002B15D0FFF7F6
:100F400087F938610AE0FFF783F902463B69D31A53
:100F500041F28832934201D9032393E04B4B1B6A41
:100F600003F00203002BEED014E0FFF771F93861B3
:100F70000AE0FFF76DF902463B69D31A41F2883265
:100F8000934201D903237DE0404B1B6A03F0020327
:100F9000002BEED1FB7D012B05D13C4BDB693B4A9D
:100FA00023F08053D3617B68DB69002B69D0374B1A
:100FB0005B6803F00C03082B61D07B68DB69022BB4
:100FC00046D1344B00221A60FFF742F9386108E03D
:100FD000FFF73EF902463B69D31A022B01D90323DE
:100FE00050E02A4B1B6803F00073002BF0D17B68A4
:100FF0001B6AB3F5803F08D1244BDB6A23F00F0254
:101000007B689B6821491343CB62204B5B6823F4C8
:1010100074127B68196A7B685B6A0B431B49134334
:101020004B601C4B01221A60FFF712F9386108E08F
:10103000FFF70EF902463B69D31A022B01D90323AD
:1010400020E0124B1B6803F00073002BF0D018E077
:10105000104B00221A60FFF7FBF8386108E0FFF739
:10106000F7F802463B69D31A022B01D9032309E0A2
:10107000064B1B6803F00073002BF0D101E0012345
:1010800000E0002318461837BD4680BD001002401E
:10109000007000406000424280B584B000AF7860CC
:1010A00039600023FB607B681B6803F00203002BA0
:1010B00020D07B681B6803F00403002B05D0604B35
:1010C0005B685F4A43F4E06353607B681B6803F02E
:1010D0000803002B05D05A4B5B68594A43F4605310
:1010E0005360574B5B6823F0F0027B689B68544960
:1010F00013434B607B681B6803F00103002B6AD02D
:101100007B685B68012B07D14D4B1B6803F40033F0
:10111000002B15D101238FE07B685B68022B07D180
:10112000474B1B6803F00073002B09D1012383E0B8
:10113000434B1B6803F00203002B01D101237BE02A
:101140003F4B5B6823F003027B685B683C491343B9
:101150004B60FFF77DF8F8607B685B68012B12D16C
:101160000AE0FFF775F80246FB68D31A41F28832AD
:10117000934201D903235FE0314B5B6803F00C031A
:10118000042BEED127E07B685B68022B1DD10AE0BF
:10119000FFF75EF80246FB68D31A41F288329342A9
:1011A00001D9032348E0264B5B6803F00C03082BAE
:1011B000EED110E0FFF74CF80246FB68D31A41F27B
:1011C0008832934201D9032336E01D4B5B6803F05C
:1011D0000C03002BEED17B681B6803F00403002B8B
:1011E00008D0174B5B6823F4E0627B68DB68144926
:1011F00013434B607B681B6803F00803002B09D086
:101200000F4B5B6823F460527B681B69DB000C4961
:1012100013434B6000F01AF80146094B5B681B0949
:1012200003F00F03074AD35C21FA03F3064A136065
:10123000002005F049FF002318461037BD4680BD49
:1012400000100240A87300080C00002090B48EB07B
:1012500000AF2B4B07F114040FCB84E80F00294B90
:101260003C1D0FCB84E80F000023FB620023BB6210
:1012700000237B6300237B6200233B63224B5B687C
:10128000FB62FB6A03F00C03042B02D0082B03D093
:101290002CE01E4B3B632CE0FB6A9B0C03F00F031E
:1012A00007F13802134413F8243C7B62FB6A03F411
:1012B0008033002B12D0144BDB6A03F00F0307F1CD
:1012C0003802134413F8343CBB627B6A0F4A02FBBA
:1012D00003F2BB6AB2FBF3F37B6304E07B6A0C4A64
:1012E00002FB03F37B637B6B3B6302E0074B3B63D7
:1012F00000BF3B6B18463837BD4690BC704700BFF7
:1013000038730008487300080010024000127A0089
:1013100000093D0080B400AF024B1B681846BD4673
:1013200080BC70470C00002080B500AFFFF7F2FFD3
:101330000146054B5B681B0A03F00703034AD35CB5
:1013400021FA03F3184680BD00100240B87300086C
:1013500080B500AFFFF7DEFF0146054B5B68DB0A97
:1013600003F00703034AD35C21FA03F3184680BD58
:1013700000100240B873000880B483B000AF7860FA
:1013800039607B680F221A60104B5B6803F0030220
:101390007B685A600D4B5B6803F0F0027B689A60D3
:1013A0000A4B5B6803F4E0627B68DA60074B5B68BA
:1013B000DB0803F4E0627B681A613B6800221A6074
:1013C00000BF0C37BD4680BC704700BF0010024014
:1013D00080B485B000AF78600A4B1B680A4AA2FB54
:1013E00003235B0A7A6802FB03F3FB6000BFFB6820
:1013F0005A1EFA60002BF9D100BF1437BD4680BCDD
:10140000704700BF0C000020D34D621080B582B041
:1014100000AF78607B68002B01D101231DE07B6861
:1014200093F83D30DBB2002B06D17B68002283F8B5
:101430003C20786805F09CFC7B68022283F83D2004
:101440007B681A687B6804331946104600F046FC36
:101450007B68012283F83D20002318460837BD46EB
:1014600080BD80B483B000AF78607B68022283F8CF
:101470003D207B681B681A687B681B6842F001028C
:101480001A607B68012283F83D20002318460C3740
:10149000BD4680BC704780B483B000AF78607B6885
:1014A000022283F83D207B681B681A6A41F21113FF
:1014B0001340002B0FD17B681B681A6A40F244432B
:1014C0001340002B07D17B681B681A687B681B6878
:1014D00022F001021A607B68012283F83D2000237C
:1014E00018460C37BD4680BC704780B483B000AF4F
:1014F00078607B681B68DA687B681B6842F00102D1
:10150000DA607B681B681A687B681B6842F001021E
:101510001A60002318460C37BD4680BC704780B562
:1015200082B000AF78607B68002B01D101231DE001
:101530007B6893F83D30DBB2002B06D17B6800223C
:1015400083F83C20786800F015F87B68022283F865
:101550003D207B681A687B6804331946104600F00A
:10156000BDFB7B68012283F83D2000231846083725
:10157000BD4680BD80B483B000AF786000BF0C373B
:10158000BD4680BC7047000080B582B000AF786077
:1015900039607B681B6801223968184600F046FFF5
:1015A0007B681B68154A93420ED07B681B68144AFF
:1015B000934209D07B681B68124A934204D07B682F
:1015C0001B68114A934201D1012300E00023002B44
:1015D00007D07B681B685A6C7B681B6842F400422A
:1015E0005A647B681B681A687B681B6842F00102BA
:1015F0001A60002318460837BD4680BD002C014004
:1016000000400140004401400048014080B582B0E4
:1016100000AF786039607B681B6800223968184623
:1016200000F004FF7B681B68274A93420ED07B685A
:101630001B68264A934209D07B681B68244A934260
:1016400004D07B681B68234A934201D1012300E048
:101650000023002B17D07B681B681A6A41F2111314
:101660001340002B0FD17B681B681A6A40F2444379
:101670001340002B07D17B681B685A6C7B681B6882
:1016800022F400425A647B681B681A6A41F2111303
:101690001340002B0FD17B681B681A6A40F2444349
:1016A0001340002B07D17B681B681A687B681B6896
:1016B00022F001021A607B68012283F83D2000239A
:1016C00018460837BD4680BD002C0140004001404F
:1016D000004401400048014080B582B000AF78600E
:1016E0007B681B681B6903F00203022B22D17B6815
:1016F0001B68DB6803F00203022B1BD17B681B68AD
:101700006FF002021A617B6801221A777B681B68FE
:101710009B6903F00303002B03D0786800F0C3FA41
:1017200005E0786800F0B6FA786800F0C5FA7B68E2
:1017300000221A777B681B681B6903F00403042BE3
:1017400022D17B681B68DB6803F00403042B1BD1E8
:101750007B681B686FF004021A617B6802221A77AB
:101760007B681B689B6903F44073002B03D0786887
:1017700000F099FA05E0786800F08CFA786800F0DB
:101780009BFA7B6800221A777B681B681B6903F051
:101790000803082B22D17B681B68DB6803F0080371
:1017A000082B1BD17B681B686FF008021A617B68ED
:1017B00004221A777B681B68DB6903F00303002BA4
:1017C00003D0786800F06FFA05E0786800F062FAFC
:1017D000786800F071FA7B6800221A777B681B68D2
:1017E0001B6903F01003102B22D17B681B68DB6898
:1017F00003F01003102B1BD17B681B686FF01002E5
:101800001A617B6808221A777B681B68DB6903F41E
:101810004073002B03D0786800F045FA05E0786843
:1018200000F038FA786800F047FA7B6800221A77EF
:101830007B681B681B6903F00103012B0ED17B68D9
:101840001B68DB6803F00103012B07D17B681B6871
:101850006FF001021A61786804F016FF7B681B685C
:101860001B6903F08003802B0ED17B681B68DB684B
:1018700003F08003802B07D17B681B686FF0800228
:101880001A61786800F0FBFE7B681B681B6903F037
:101890004003402B0ED17B681B68DB6803F04003DC
:1018A000402B07D17B681B686FF040021A61786893
:1018B00000F00BFA7B681B681B6903F02003202BE8
:1018C0000ED17B681B68DB6803F02003202B07D157
:1018D0007B681B686FF020021A61786800F0C6FE12
:1018E00000BF0837BD4680BD80B584B000AFF8604A
:1018F000B9607A60FB6893F83C30012B01D1022378
:10190000B4E0FB68012283F83C20FB68022283F8E4
:101910003D207B680C2B00F29F8001A252F823F03F
:1019200055190008591A0008591A0008591A0008D0
:1019300095190008591A0008591A0008591A000880
:10194000D7190008591A0008591A0008591A00082E
:10195000171A0008FB681B68B968184600F042FABD
:10196000FB681B689A69FB681B6842F008029A6171
:10197000FB681B689A69FB681B6822F004029A6185
:10198000FB681B689969BB681A69FB681B680A4396
:101990009A6162E0FB681B68B968184600F0ACFA0F
:1019A000FB681B689A69FB681B6842F400629A61D5
:1019B000FB681B689A69FB681B6822F480629A6165
:1019C000FB681B689969BB681B691A02FB681B6886
:1019D0000A439A6141E0FB681B68B968184600F049
:1019E0000DFBFB681B68DA69FB681B6842F00802A4
:1019F000DA61FB681B68DA69FB681B6822F0040285
:101A0000DA61FB681B68D969BB681A69FB681B68E7
:101A10000A43DA6121E0FB681B68B968184600F0E8
:101A20006FFBFB681B68DA69FB681B6842F40062A5
:101A3000DA61FB681B68DA69FB681B6822F4806264
:101A4000DA61FB681B68D969BB681B691A02FB680D
:101A50001B680A43DA6100E000BFFB68012283F8DB
:101A60003D20FB68002283F83C20002318461037F5
:101A7000BD4680BD80B584B000AF7860396000237A
:101A8000FB607B6893F83C30012B01D10223C8E056
:101A90007B68012283F83C207B68022283F83D208A
:101AA0007B681B689B68FB60FB6823F07703FB6027
:101AB000FB6823F47F43FB607B681B68FA689A60CD
:101AC0003B681B68402B77D0402B0ED8102B00F0C2
:101AD0008A80102B02D8002B7ED099E0202B00F0BA
:101AE0008980302B00F08D8092E0702B16D0702B07
:101AF00004D8502B40D0602B4ED089E0B3F5805FE6
:101B000003D0B3F5005F24D082E07B681B689A683D
:101B10007B681B6822F007029A6079E07B6818688E
:101B20003B6899683B685A683B68DB6800F05DFC7D
:101B30007B681B689B68FB60FB6823F07703FB6096
:101B4000FB6843F07703FB607B681B68FA689A6068
:101B50005EE07B6818683B6899683B685A683B6838
:101B6000DB6800F042FC7B681B689A687B681B6836
:101B700042F480429A604BE07B6818683B68596881
:101B80003B68DB681A4600F0ACFB7B681B685021A1
:101B9000184600F00BFC3BE07B6818683B6859680E
:101BA0003B68DB681A4600F0CEFB7B681B6860214F
:101BB000184600F0FBFB2BE07B6818683B6859680F
:101BC0003B68DB681A4600F08CFB7B681B68402191
:101BD000184600F0EBFB1BE07B681B6800211846F1
:101BE00000F0E4FB14E07B681B681021184600F04D
:101BF000DDFB0DE07B681B682021184600F0D6FB5A
:101C000006E07B681B683021184600F0CFFB00BF60
:101C10007B68012283F83D207B68002283F83C200A
:101C2000002318461037BD4680BD80B582B000AF96
:101C3000786039607B6893F83C30012B01D1022336
:101C400024E07B68012283F83C207B68022283F831
:101C50003D203968786800F0B9FA7B681B68DA685B
:101C60007B681B6822F04002DA607B681B68DA68D8
:101C70007B681B6822F48042DA607B68012283F86B
:101C80003D207B68002283F83C200023184608375B
:101C9000BD4680BD80B483B000AF786000BF0C3714
:101CA000BD4680BC704780B483B000AF786000BF91
:101CB0000C37BD4680BC704780B483B000AF7860FD
:101CC00000BF0C37BD4680BC704780B483B000AF06
:101CD000786000BF0C37BD4680BC704780B485B0CB
:101CE00000AF786039600023FB607B681B68FB6095
:101CF0007B68364A93420BD07B68B3F1804F07D0A4
:101D00007B68334A934203D07B68324A934208D1BE
:101D1000FB6823F07003FB603B685B68FA68134361
:101D2000FB607B68294A934217D07B68B3F1804FF0
:101D300013D07B68264A93420FD07B68254A934292
:101D40000BD07B68244A934207D07B68234A934296
:101D500003D07B68224A934208D1FB6823F4407386
:101D6000FB603B68DB68FA681343FB60FB6823F0A9
:101D70008003FB603B685B69FA681343FB607B6828
:101D8000FA681A603B689A687B68DA623B681A688E
:101D90007B689A627B680D4A93420BD07B680E4A3F
:101DA000934207D07B680D4A934203D07B680C4A6C
:101DB000934203D13B681A697B681A637B680122EE
:101DC0005A6100BF1437BD4680BC7047002C0140EB
:101DD0000004004000080040004001400044014071
:101DE0000048014080B487B000AF786039600023BC
:101DF000FB6000237B6100233B617B681B6A23F04F
:101E000001027B681A627B681B6A7B617B685B6886
:101E10003B617B689B69FB60FB6823F07003FB60A0
:101E2000FB6823F00303FB603B681B68FA681343FD
:101E3000FB607B6923F002037B613B689B687A69E6
:101E400013437B617B68284A93420BD07B68274A07
:101E5000934207D07B68264A934203D07B68254A89
:101E600093420CD17B6923F008037B613B68DB68FC
:101E70007A6913437B617B6923F004037B617B6890
:101E8000194A93420BD07B68184A934207D07B686B
:101E9000174A934203D07B68164A934211D13B699B
:101EA00023F480733B613B6923F400733B613B681F
:101EB0005B693A6913433B613B689B693A69134329
:101EC0003B617B683A695A607B68FA689A613B6853
:101ED0005A687B685A637B687A691A6200BF1C374C
:101EE000BD4680BC704700BF002C0140004001404F
:101EF000004401400048014080B487B000AF7860E2
:101F000039600023FB6000237B6100233B617B6819
:101F10001B6A23F010027B681A627B681B6A7B6174
:101F20007B685B683B617B689B69FB60FB6823F4B3
:101F3000E043FB60FB6823F44073FB603B681B6875
:101F40001B02FA681343FB607B6923F020037B616B
:101F50003B689B681B017A6913437B617B68234A5A
:101F600093420DD17B6923F080037B613B68DB6882
:101F70001B017A6913437B617B6923F040037B611A
:101F80007B681A4A93420BD07B68194A934207D068
:101F90007B68184A934203D07B68174A934213D157
:101FA0003B6923F480633B613B6923F400633B613D
:101FB0003B685B699B003A6913433B613B689B69E3
:101FC0009B003A6913433B617B683A695A607B68BE
:101FD000FA689A613B685A687B689A637B687A6999
:101FE0001A6200BF1C37BD4680BC7047002C014000
:101FF00000400140004401400048014080B487B0E7
:1020000000AF786039600023FB6000237B61002310
:102010003B617B681B6A23F480727B681A627B6871
:102020001B6A7B617B685B683B617B68DB69FB608B
:10203000FB6823F07003FB60FB6823F00303FB6085
:102040003B681B68FA681343FB607B6923F40073E9
:102050007B613B689B681B027A6913437B617B68E9
:10206000234A93420DD17B6923F400637B613B6873
:10207000DB681B027A6913437B617B6923F480630D
:102080007B617B681A4A93420BD07B68194A934262
:1020900007D07B68184A934203D07B68174A934263
:1020A00013D13B6923F480533B613B6923F4005314
:1020B0003B613B685B691B013A6913433B613B68C9
:1020C0009B691B013A6913433B617B683A695A601B
:1020D0007B68FA68DA613B685A687B68DA637B6818
:1020E0007A691A6200BF1C37BD4680BC704700BFCA
:1020F000002C0140004001400044014000480140E4
:1021000080B487B000AF7860396000233B61002362
:10211000FB6000237B617B681B6A23F480527B6831
:102120001A627B681B6AFB607B685B687B617B680B
:10213000DB693B613B6923F4E0433B613B6923F48A
:1021400040733B613B681B681B023A6913433B6168
:10215000FB6823F40053FB603B689B681B03FA6831
:102160001343FB607B68154A93420BD07B68144A8B
:10217000934207D07B68134A934203D07B68124A8C
:10218000934209D17B6923F480437B613B685B699F
:102190009B017A6913437B617B687A695A607B682B
:1021A0003A69DA613B685A687B681A647B68FA6846
:1021B0001A6200BF1C37BD4680BC7047002C01402E
:1021C00000400140004401400048014080B586B015
:1021D00000AF7860396000237B6100233B610023FE
:1021E000FB607B681B689B687B617B6923F07003E5
:1021F0007B613B685B687A6913437B617B6923F091
:1022000007037B613B681B687A6913437B617B68CA
:102210001B687A699A603B685B68302B56D0302B1C
:1022200006D8102B54D0202B54D0002B54D054E07F
:10223000502B37D0502B02D8402B10D04DE0602BC4
:102240003AD0702B00D048E07B6818683B68D968AA
:102250003B689A683B681B6900F0C7F83DE07B6803
:102260001B681B6AFB607B681B681A6A7B681B68BB
:1022700022F001021A627B681B689B693B613B6923
:1022800023F0F0033B613B681B691B013A69134370
:102290003B617B681B683A699A617B681B68FA68D6
:1022A0001A621AE07B6818683B6899683B681B698A
:1022B0001A4600F016F810E07B6818683B689968C9
:1022C0003B681B691A4600F03EF806E000BF04E0D8
:1022D00000BF02E000BF00E000BF00BF1837BD46EE
:1022E00080BD80B487B000AFF860B9607A60002329
:1022F0007B6100233B61FB681B6A3B61FB681B6AD7
:1023000023F00102FB681A62FB689B697B617B69B1
:1023100023F0F0037B617B681B017A6913437B61C7
:102320003B6923F00A033B613A69BB6813433B6195
:10233000FB687A699A61FB683A691A6200BF1C37C8
:10234000BD4680BC704780B487B000AFF860B9600C
:102350007A6000237B6100233B61FB681B6A23F0EA
:102360001002FB681A62FB689B697B61FB681B6A51
:102370003B617B6923F470437B617B681B037A6953
:1023800013437B613B6923F0A0033B61BB681B01E6
:102390003A6913433B61FB687A699A61FB683A6961
:1023A0001A6200BF1C37BD4680BC704780B485B040
:1023B00000AF78600B467B800023FB607B689B68E6
:1023C000FB60FB6823F07003FB607B8843F007032E
:1023D0009BB21A46FB681343FB607B68FA689A60FD
:1023E00000BF1437BD4680BC704780B487B000AFD3
:1023F000F860B9607A603B6000237B61FB689B6892
:102400007B617B6923F47F437B613B681A027B68B5
:102410001A43BB6813437A6913437B61FB687A698B
:102420009A6000BF1C37BD4680BC704780B487B03F
:1024300000AFF860B9607A6000237B610122BB685D
:1024400002FA03F37B61FB681A6A7B69DB431A407B
:10245000FB681A62FB681A6A7968BB6801FA03F3C1
:102460001A43FB681A6200BF1C37BD4680BC704728
:1024700080B582B000AF786039607B681B68042249
:102480003968184600F004F97B681B685A6C7B6851
:102490001B6842F400425A647B681B681A687B68B8
:1024A0001B6842F001021A60002318460837BD4637
:1024B00080BD80B582B000AF786039607B681B68F2
:1024C00000223968184600F0E3F87B681B681A6A36
:1024D00041F211131340002B0FD17B681B681A6A5D
:1024E00040F244431340002B07D17B681B685A6CB1
:1024F0007B681B6822F400425A647B681B681A6A76
:1025000041F211131340002B0FD17B681B681A6A2C
:1025100040F244431340002B07D17B681B681A68C4
:102520007B681B6822F001021A60002318460837F6
:10253000BD4680BD80B485B000AF786039600023AF
:10254000FB607B6893F83C30012B01D1022344E00F
:102550007B68012283F83C20FB6823F0FF023B6884
:10256000DB681343FB60FB6823F440723B689B68A5
:102570001343FB60FB6823F480623B685B68134392
:10258000FB60FB6823F400623B681B681343FB603D
:10259000FB6823F480523B681B691343FB60FB68B4
:1025A00023F400523B685B691343FB60FB6823F430
:1025B00080423B689B691343FB60FB6823F4004245
:1025C0003B689B691343FB607B681B68FA685A642D
:1025D0007B68002283F83C20002318461437BD4650
:1025E00080BC704780B483B000AF786039607B688E
:1025F00093F83C30012B01D1022332E07B680122A9
:1026000083F83C207B68022283F83D207B681B68AE
:102610005A687B681B6822F070025A607B681B68EE
:1026200059683B681A687B681B680A435A607B6874
:102630001B689A687B681B6822F080029A607B683E
:102640001B6899683B685A687B681B680A439A60F4
:102650007B68012283F83D207B68002283F83C20C0
:10266000002318460C37BD4680BC704780B483B049
:1026700000AF786000BF0C37BD4680BC704780B4A7
:1026800083B000AF786000BF0C37BD4680BC704798
:1026900080B487B000AFF860B9607A6000237B61D6
:1026A0000422BB6802FA03F37B61FB681A6A7B6948
:1026B000DB431A40FB681A62FB681A6A7968BB68D8
:1026C00001FA03F31A43FB681A6200BF1C37BD46C8
:1026D00080BC704780B582B000AF78607B68002B0B
:1026E00001D101233FE07B6893F83930DBB2002B46
:1026F00006D17B68002283F83820786804F066FCF5
:102700007B68242283F839207B681B68DA687B6841
:102710001B6822F40052DA60786800F0B5FB7B6831
:102720001B681A697B681B6822F490421A617B68F7
:102730001B685A697B681B6822F02A025A617B6811
:102740001B68DA687B681B6842F40052DA607B68B9
:102750000022DA637B68202283F839207B682022FC
:1027600083F83A20002318460837BD4680BD80B460
:1027700085B000AFF860B9601346FB80FB6893F842
:102780003A30DBB2202B40D1BB68002B02D0FB8853
:10279000002B01D1012339E0FB6893F83830012B7D
:1027A00001D1022332E0FB68012283F83820FB6864
:1027B000BA689A62FB68FA889A85FB68FA88DA85B3
:1027C000FB680022DA63FB68222283F83A20FB6868
:1027D000002283F83820FB681B68DA68FB681B68F6
:1027E00042F48072DA60FB681B685A69FB681B68F8
:1027F00042F001025A61FB681B68DA68FB681B68DB
:1028000042F02002DA60002300E002231846143769
:10281000BD4680BC7047000080B586B000AFF86050
:10282000B9601346FB80FB6893F83930DBB2202B8C
:1028300053D1BB68002B02D0FB88002B01D10123B0
:102840004CE0FB6893F83830012B01D1022345E0BE
:10285000FB68012283F83820BA68FB681A62FB68BB
:10286000FA889A84FB68FA88DA84FB680022DA63C3
:10287000FB68212283F83920FB681B6B194A9A6296
:10288000FB681B6B184ADA62FB681B6B174A1A63FA
:10289000FB681B6B00225A6307F108037B61FB682E
:1028A000186B7B691968FB681B6804331A46FB8840
:1028B000FDF70EFEFB681B686FF040021A60FB68B4
:1028C000002283F83820FB681B685A69FB681B6884
:1028D00042F080025A61002300E0022318461837B4
:1028E000BD4680BD1F2B0008712B00088D2B0008F2
:1028F00080B588B000AF78607B681B681B68FB619F
:102900007B681B68DB68BB617B681B685B697B61FC
:1029100000233B610023FB60FB6903F00F033B6175
:102920003B69002B0DD1FB6903F02003002B08D07D
:10293000BB6903F02003002B03D0786800F023FA72
:10294000CCE03B69002B00F0AB807B6903F0010316
:10295000002B05D1BB6903F49073002B00F0A0801D
:10296000FB6903F00103002B0AD0BB6903F48073F9
:10297000002B05D07B68DB6B43F001027B68DA63D8
:10298000FB6903F00403002B0AD07B6903F0010309
:10299000002B05D07B68DB6B43F002027B68DA63B7
:1029A000FB6903F00203002B0AD07B6903F00103EB
:1029B000002B05D07B68DB6B43F004027B68DA6395
:1029C000FB6903F00803002B0AD07B6903F00103C5
:1029D000002B05D07B68DB6B43F008027B68DA6371
:1029E0007B68DB6B002B78D0FB6903F02003002BA6
:1029F00007D0BB6903F02003002B02D0786800F0F9
:102A0000C2F97B681B685B6903F04003002B14BFAD
:102A100001230023DBB2FB607B68DB6B03F0080360
:102A2000002B02D1FB68002B31D0786800F00DF943
:102A30007B681B685B6903F04003002B23D07B6835
:102A40001B685A697B681B6822F040025A617B68E8
:102A50005B6B002B13D07B685B6B224A5A637B68ED
:102A60005B6B1846FDF794FD0346002B16D07B6880
:102A70005B6B5B6B7A68526B104698470EE0786828
:102A800000F044F80AE0786800F040F806E0786862
:102A900000F03CF87B680022DA631EE000BF1CE017
:102AA000FB6903F08003002B08D0BB6903F08003AF
:102AB000002B03D0786800F0F9F80FE0FB6903F011
:102AC0004003002B0AD0BB6903F04003002B05D064
:102AD000786800F040F900BF00E000BF2037BD4635
:102AE00080BD00BF852C000880B483B000AF786043
:102AF00000BF0C37BD4680BC704780B483B000AFC8
:102B0000786000BF0C37BD4680BC704780B483B08E
:102B100000AF786000BF0C37BD4680BC704780B501
:102B200084B000AF78607B685B6AFB607B681B6881
:102B30001B6803F02003002B13D1FB680022DA840A
:102B4000FB681B685A69FB681B6822F080025A61A7
:102B5000FB681B68DA68FB681B6842F04002DA60B9
:102B600002E0F868FFF7C0FF00BF1037BD4680BD28
:102B700080B584B000AF78607B685B6AFB60F86802
:102B8000FFF7BBFF00BF1037BD4680BD80B584B0E6
:102B900000AF78600023FB607B685B6ABB60BB684A
:102BA0001B685B6903F08003002B14BF0123002323
:102BB000DBB2FB60BB6893F83930DBB2212B08D164
:102BC000FB68002B05D0BB680022DA84B86800F0EF
:102BD00027F8BB681B685B6903F04003002B14BF38
:102BE00001230023DBB2FB60BB6893F83A30DBB211
:102BF000222B08D1FB68002B05D0BB680022DA85A8
:102C0000B86800F022F8BB68DB6B43F01002BB68C9
:102C1000DA63B868FFF77AFF00BF1037BD4680BDA2
:102C200080B483B000AF78607B681B68DA687B682B
:102C30001B6822F0C002DA607B68202283F839200A
:102C400000BF0C37BD4680BC704780B483B000AF76
:102C500078607B681B68DA687B681B6822F4907276
:102C6000DA607B681B685A697B681B6822F0010286
:102C70005A617B68202283F83A2000BF0C37BD469A
:102C800080BC704780B584B000AF78607B685B6AB9
:102C9000FB60FB680022DA85FB680022DA84F868B2
:102CA000FFF734FF00BF1037BD4680BD80B485B04C
:102CB00000AF78607B6893F83930DBB2212B44D1C8
:102CC0007B689B68B3F5805F1AD17B681B6AFB60E9
:102CD000FB681B881A467B681B68C2F308025A60AF
:102CE0007B681B69002B05D17B681B6A9A1C7B687B
:102CF0001A620EE07B681B6A5A1C7B681A6208E045
:102D00007B681B6A591C7A6811621A787B681B6899
:102D10005A607B68DB8C9BB2013B9BB27A68194698
:102D2000D184002B0FD17B681B68DA687B681B6835
:102D300022F08002DA607B681B68DA687B681B68B7
:102D400042F04002DA60002300E002231846143704
:102D5000BD4680BC704780B582B000AF78607B68AC
:102D60001B68DA687B681B6822F04002DA607B68C7
:102D7000202283F839207868FFF7B6FE0023184632
:102D80000837BD4680BD80B584B000AF78607B68F1
:102D900093F83A30DBB2222B71D17B689B68B3F594
:102DA000805F23D17B689B6AFB607B681B69002B7B
:102DB0000ED17B681B685B689BB2C3F308039AB2B1
:102DC000FB681A807B689B6A9A1C7B689A6229E080
:102DD0007B681B685B689BB2DBB29AB2FB681A80A7
:102DE0007B689B6A5A1C7B689A621BE07B681B6944
:102DF000002B0AD17B681B6858687B689B6A591C4A
:102E00007A689162C2B21A700CE07B681B685B68DA
:102E1000DAB27B689B6A581C7968886202F07F028C
:102E2000D2B21A707B68DB8D9BB2013B9BB27A6891
:102E30001946D185002B20D17B681B68DA687B6836
:102E40001B6822F02002DA607B681B68DA687B6806
:102E50001B6822F48072DA607B681B685A697B68A1
:102E60001B6822F001025A617B68202283F83A2015
:102E7000786803F013FD002302E0002300E0022342
:102E800018461037BD4680BDB0B584B000AF78603D
:102E90000023FB607B681B681B6923F440517B683F
:102EA000DA687B681B680A431A617B689A687B68EA
:102EB0001B691A437B685B691A437B68DB691343B0
:102EC000FA681343FB607B681B68DB6823F41643D6
:102ED00023F00C037A681268F9680B43D3607B68AF
:102EE0001B685B6923F440717B689A697B681B6887
:102EF0000A435A617B68DB69B3F5004F40F0DF801D
:102F00007B681B68A64A93426CD1FEF721FA024601
:102F100013469B0013449A001A447B685B685B006D
:102F2000B2FBF3F39F4AA2FB03235B091C01FEF7EC
:102F30000FFA024613469B0013449A001A447B681A
:102F40005B685B00B2FBF3F5FEF702FA024613463C
:102F50009B0013449A001A447B685B685B00B2FBD9
:102F6000F3F3904AA2FB03235B09642202FB03F301
:102F7000EB1ADB0032338B4AA2FB03235B095B00B5
:102F800003F4F8731C44FEF7E3F9024613469B0072
:102F900013449A001A447B685B685B00B2FBF3F54C
:102FA000FEF7D6F9024613469B0013449A001A44D2
:102FB0007B685B685B00B2FBF3F37A4AA2FB0323F6
:102FC0005B09642202FB03F3EB1ADB003233754A20
:102FD000A2FB03235B0903F007027B681B68224402
:102FE0009A604CE1FEF7A0F9024613469B00134499
:102FF0009A001A447B685B685B00B2FBF3F3694A92
:10300000A2FB03235B091C01FEF78EF9024613465F
:103010009B0013449A001A447B685B685B00B2FB18
:10302000F3F5FEF781F9024613469B0013449A001C
:103030001A447B685B685B00B2FBF3F3594AA2FB5E
:1030400003235B09642202FB03F3EB1ADB00323338
:10305000544AA2FB03235B095B0003F4F8731C448E
:10306000FEF762F9024613469B0013449A001A4485
:103070007B685B685B00B2FBF3F5FEF755F902462F
:1030800013469B0013449A001A447B685B685B00FC
:10309000B2FBF3F3434AA2FB03235B09642202FB66
:1030A00003F3EB1ADB0032333E4AA2FB03235B0936
:1030B00003F007027B681B6822449A60DFE07B68AC
:1030C0001B68374A93426FD1FEF742F90246134616
:1030D0009B0013449A001A447B685B689B00B2FB18
:1030E000F3F3304AA2FB03235B091C01FEF730F91E
:1030F000024613469B0013449A001A447B685B689F
:103100009B00B2FBF3F5FEF723F9024613469B0042
:1031100013449A001A447B685B689B00B2FBF3F38C
:10312000204AA2FB03235B09642202FB03F3EB1A90
:103130001B0132331B4AA2FB03235B0903F0F0039C
:103140001C44FEF705F9024613469B0013449A00FF
:103150001A447B685B689B00B2FBF3F5FEF7F8F856
:10316000024613469B0013449A001A447B685B682E
:103170009B00B2FBF3F30B4AA2FB03235B0964221F
:1031800002FB03F3EB1A1B013233064AA2FB0323B3
:103190005B0903F00F027B681B6822449A606EE0B3
:1031A000003801401F85EB51FEF7BEF8024613467A
:1031B0009B0013449A001A447B685B689B00B2FB37
:1031C000F3F3314AA2FB03235B091C01FEF7ACF8C1
:1031D000024613469B0013449A001A447B685B68BE
:1031E0009B00B2FBF3F5FEF79FF8024613469B00E7
:1031F00013449A001A447B685B689B00B2FBF3F3AC
:10320000214AA2FB03235B09642202FB03F3EB1AAE
:103210001B0132331C4AA2FB03235B0903F0F003BA
:103220001C44FEF781F8024613469B0013449A00A3
:103230001A447B685B689B00B2FBF3F5FEF774F8F9
:10324000024613469B0013449A001A447B685B684D
:103250009B00B2FBF3F30C4AA2FB03235B0964223D
:1032600002FB03F3EB1A1B013233074AA2FB0323D1
:103270005B0903F00F027B681B6822449A6000BF61
:103280001037BD46B0BD00BF1F85EB5180B485B07F
:1032900000AF0346FB800023FB60B7F90630842BA8
:1032A00005D0B7F90620FB6813440333FB60FB68C5
:1032B00018461437BD4680BC704780B500AF00F09B
:1032C00017FF0023184680BDF0B587B002AF7860C5
:1032D00039607B685C687B681D687B681B699EB28F
:1032E0007B68B3F908301846FFF7D0FF024607F1B4
:1032F0000C03019300923B6832462946204600F0B9
:1033000099FD0346012B01D0002300E0FB6818461D
:103310001437BD46F0BD80B584B000AF78607B68DF
:10332000FB60FB68002B01D0FB6800E0012318461E
:1033300000F0AAFE002318461037BD4680BD80B4B9
:1033400083B000AF78607B6803F108027B685A6045
:103350007B684FF0FF329A607B6803F108027B685C
:10336000DA607B6803F108027B681A617B680022DF
:103370001A6000BF0C37BD4680BC704780B483B074
:1033800000AF78607B6800221A6100BF0C37BD4631
:1033900080BC704780B485B000AF786039607B68CE
:1033A0005B68FB603B68FA685A60FB689A683B6838
:1033B0009A60FB689B683A685A60FB683A689A6052
:1033C0003B687A681A617B681B685A1C7B681A60C4
:1033D00000BF1437BD4680BC704780B485B000AFD5
:1033E000786039603B681B68BB60BB68B3F1FF3F26
:1033F00003D17B681B69FB600CE07B680833FB60D2
:1034000002E0FB685B68FB60FB685B681B68BA688E
:103410009A42F6D2FB685A683B685A603B685B6820
:103420003A689A603B68FA689A60FB683A685A6042
:103430003B687A681A617B681B685A1C7B681A6053
:1034400000BF1437BD4680BC704780B485B000AF64
:1034500078607B681B69FB607B685B687A68926850
:103460009A607B689B687A6852685A60FB685B6800
:103470007A689A4203D17B689A68FB685A607B68D5
:1034800000221A61FB681B685A1EFB681A60FB6801
:103490001B6818461437BD4680BC704780B584B0A1
:1034A00000AF786039607B68FB60FB68002B09D156
:1034B0004FF0500383F31188BFF36F8FBFF34F8F2B
:1034C000BB60FEE701F0AEFFFB681A68FB68DB6BD0
:1034D000F968096C01FB03F31A44FB685A60FB6846
:1034E00000229A63FB681A68FB689A60FB681A6896
:1034F000FB68DB6B013BF968096C01FB03F31A44C1
:10350000FB68DA60FB68FF2283F84420FB68FF2237
:1035100083F845203B68002B14D1FB681B69002B06
:103520001AD0FB681033184601F04AF80346002B06
:1035300012D00D4B4FF080521A60BFF34F8FBFF384
:103540006F8F09E0FB6810331846FFF7F8FEFB6841
:1035500024331846FFF7F3FE01F092FF01231846CB
:103560001037BD4680BD00BF04ED00E080B58AB0D5
:1035700002AFF860B9601346FB71FB68002B09D1FC
:103580004FF0500383F31188BFF36F8FBFF34F8F5A
:103590003B61FEE7BB68002B02D10023FB6104E026
:1035A000FB68BA6802FB03F3FB61FB69483318460A
:1035B00002F028F8B861BB69002B0BD0BB69483317
:1035C0007B61FA79BB69009313467A69B968F86838
:1035D00000F005F8BB6918462037BD4680BD80B5B0
:1035E00084B000AFF860B9607A60FB70BB68002BF4
:1035F00003D1BB69BA691A6002E0BB697A681A60D4
:10360000BB69FA68DA63BB69BA681A640121B869F0
:10361000FFF744FF00BF1037BD4680BD80B58EB0B8
:1036200000AFF860B9607A603B6000237B63FB68A1
:103630003B633B6B002B09D14FF0500383F31188A0
:10364000BFF36F8FBFF34F8FBB62FEE7BB68002BEA
:1036500003D13B6B1B6C002B01D1012300E0002345
:10366000002B09D14FF0500383F31188BFF36F8F04
:10367000BFF34F8F7B62FEE73B68022B03D13B6BAE
:10368000DB6B012B01D1012300E00023002B09D1CA
:103690004FF0500383F31188BFF36F8FBFF34F8F49
:1036A0003B62FEE701F042F90346002B02D17B6842
:1036B000002B01D1012300E00023002B09D14FF0A2
:1036C000500383F31188BFF36F8FBFF34F8FFB61FC
:1036D000FEE701F0A7FE3B6B9A6B3B6BDB6B9A42FC
:1036E00002D33B68022B29D13A68B968386B00F0E5
:1036F00035FAF8623B6B5B6A002B10D03B6B2433CE
:10370000184600F05DFF0346002B13D03F4B4FF0EF
:1037100080521A60BFF34F8FBFF36F8F0AE0FB6ACE
:10372000002B07D0394B4FF080521A60BFF34F8FF8
:10373000BFF36F8F01F0A4FE012363E07B68002BD1
:1037400003D101F09DFE00235CE07B6B002B06D1D2
:1037500007F11403184600F095FF01237B6301F085
:103760008FFE00F011FD01F05DFE3B6B93F84430DD
:103770005BB2B3F1FF3F03D13B6B002283F84420DF
:103780003B6B93F845305BB2B3F1FF3F03D13B6B2A
:10379000002283F8452001F073FE3A1D07F114035F
:1037A0001146184600F090FF0346002B24D1386BD9
:1037B00000F0CCFA0346002B18D03B6B10337A682C
:1037C0001146184600F0AEFE386B00F057FA00F0D4
:1037D000E9FC0346002B7FF47CAF0C4B4FF080528A
:1037E0001A60BFF34F8FBFF36F8F72E7386B00F033
:1037F00045FA00F0D7FC6CE7386B00F03FFA00F0B8
:10380000D1FC002318463837BD4680BD04ED00E0EA
:1038100080B58EB000AFF860B9607A603B60FB683D
:103820003B633B6B002B09D14FF0500383F31188AE
:10383000BFF36F8FBFF34F8F7B62FEE7BB68002B38
:1038400003D13B6B1B6C002B01D1012300E0002353
:10385000002B09D14FF0500383F31188BFF36F8F12
:10386000BFF34F8F3B62FEE73B68022B03D13B6BFC
:10387000DB6B012B01D1012300E00023002B09D1D8
:103880004FF0500383F31188BFF36F8FBFF34F8F57
:10389000FB61FEE701F07AFEEFF311824FF0500377
:1038A00083F31188BFF36F8FBFF34F8FBA617B61D2
:1038B000BB69FB623B6B9A6B3B6BDB6B9A4202D33F
:1038C0003B68022B2CD13B6B93F8453087F82B30AB
:1038D0003A68B968386B00F041F997F92B30B3F1C9
:1038E000FF3F12D13B6B5B6A002B16D03B6B24333E
:1038F000184600F065FE0346002B0ED07B68002BB7
:103900000BD07B6801221A6007E097F82B30013357
:10391000DBB25AB23B6B83F8452001237B6301E0A5
:1039200000237B63FB6A3B613B6983F311887B6BFC
:1039300018463837BD4680BD80B58EB000AFF86000
:10394000B9607A603B6000237B63FB683B633B6B41
:10395000002B09D14FF0500383F31188BFF36F8F11
:10396000BFF34F8F7B62FEE7BB68002B03D13B6B3D
:103970001B6C002B01D1012300E00023002B09D197
:103980004FF0500383F31188BFF36F8FBFF34F8F56
:103990003B62FEE700F0CAFF0346002B02D17B68C2
:1039A000002B01D1012300E00023002B09D14FF0AF
:1039B000500383F31188BFF36F8FBFF34F8FFB6109
:1039C000FEE701F02FFD3B6B9B6BFB62FB6A002B5C
:1039D00046D03B6BDB68BB62B968386B00F028F9F6
:1039E0003B68002B21D1FB6A5A1E3B6B9A633B6BF1
:1039F0001B68002B04D101F0B1F802463B6B5A6002
:103A00003B6B1B69002B27D03B6B1033184600F033
:103A1000D7FD0346002B1FD04F4B4FF080521A604A
:103A2000BFF34F8FBFF36F8F16E03B6BBA6ADA605C
:103A30003B6B5B6A002B0FD03B6B2433184600F0C6
:103A4000BFFD0346002B07D0434B4FF080521A6056
:103A5000BFF34F8FBFF36F8F01F012FD012377E0AB
:103A60007B68002B03D101F00BFD002370E07B6B22
:103A7000002B06D107F11403184600F003FE0123C2
:103A80007B6301F0FDFC00F07FFB01F0CBFC3B6BA6
:103A900093F844305BB2B3F1FF3F03D13B6B00229C
:103AA00083F844203B6B93F845305BB2B3F1FF3FA2
:103AB00003D13B6B002283F8452001F0E1FC3A1D65
:103AC00007F114031146184600F0FEFD0346002BD3
:103AD00031D1386B00F024F90346002B25D03B6B25
:103AE0001B68002B08D101F09DFC3B6B5B681846FE
:103AF00000F03AFF01F0C4FC3B6B24337A681146B6
:103B0000184600F00FFD386B00F0B8F800F04AFBE3
:103B10000346002B7FF455AF0F4B4FF080521A60D5
:103B2000BFF34F8FBFF36F8F4BE7386B00F0A6F8F2
:103B300000F038FB45E7386B00F0A0F800F032FBEE
:103B4000386B00F0EDF80346002B3FF43AAF00234A
:103B500018463837BD4680BD04ED00E080B586B01C
:103B600000AFF860B9607A6000237B61FB689B6BF3
:103B70003B61FB681B6C002B0DD1FB681B68002BA5
:103B80004DD1FB685B68184600F064FF7861FB6804
:103B900000225A6043E07B68002B19D1FB689868CB
:103BA000FB681B6C1A46B96803F0A6FBFB689A68B1
:103BB000FB681B6C1A44FB689A60FB689A68FB6898
:103BC0005B689A422BD3FB681A68FB689A6026E010
:103BD000FB68D868FB681B6C1A46B96803F08CFB5D
:103BE000FB68DA68FB681B6C5B421A44FB68DA60AE
:103BF000FB68DA68FB681B689A4207D2FB685A6860
:103C0000FB681B6C5B421A44FB68DA607B68022B22
:103C100005D13B69002B02D03B69013B3B613B690D
:103C20005A1CFB689A637B6918461837BD4680BDED
:103C300080B582B000AF786039607B681B6C002B68
:103C400018D07B68DA687B681B6C1A447B68DA6082
:103C50007B68DA687B685B689A4203D37B681A6882
:103C60007B68DA607B68D9687B681B6C1A463868A9
:103C700003F042FB00BF0837BD4680BD80B584B06D
:103C800000AF786001F0CEFB7B6893F84530FB73A2
:103C900011E07B685B6A002B12D07B6824331846E6
:103CA00000F08EFC0346002B01D000F06BFDFB7B87
:103CB000013BDBB2FB7397F90F30002BE9DC00E02E
:103CC00000BF7B68FF2283F8452001F0D9FB01F09B
:103CD000A9FB7B6893F84430BB7311E07B681B69D8
:103CE000002B12D07B681033184600F069FC0346A5
:103CF000002B01D000F046FDBB7B013BDBB2BB7368
:103D000097F90E30002BE9DC00E000BF7B68FF2252
:103D100083F8442001F0B4FB00BF1037BD4680BDDE
:103D200080B584B000AF786001F07CFB7B689B6B52
:103D3000002B02D10123FB6001E00023FB6001F0B6
:103D40009FFBFB6818461037BD4680BD80B584B028
:103D500000AF786001F066FB7B689A6B7B68DB6B79
:103D60009A4202D10123FB6001E00023FB6001F0D5
:103D700087FBFB6818461037BD4680BD80B485B010
:103D800000AF786039600023FB6014E00E4AFB68E6
:103D900052F83330002B0BD10B49FB683A6841F8DD
:103DA0003320094AFB68DB0013447A685A6005E057
:103DB000FB680133FB60FB68072BE7D900BF1437B2
:103DC000BD4680BC704700BFBC0D002080B586B0EA
:103DD00000AFF860B9607A60FB687B6101F022FB9C
:103DE0007B6993F844305BB2B3F1FF3F03D17B6949
:103DF000002283F844207B6993F845305BB2B3F12D
:103E0000FF3F03D17B69002283F8452001F038FB96
:103E10007B699B6B002B06D17B6924337A68B96878
:103E2000184600F0A3FB7869FFF728FF00BF18379A
:103E3000BD4680BD80B58CB004AFF860B9603B6012
:103E40001346FB80FB889B00184601F0DBFB786182
:103E50007B69002B0ED0542001F0D4FBF861FB6984
:103E6000002B03D0FB697A691A6305E0786901F0D9
:103E70008BFC01E00023FB61FB69002B13D0FA8867
:103E800000230393FB690293FB6A0193BB6A0093CF
:103E90003B68B968F86800F00EF8F86900F08AF835
:103EA0000123BB6102E04FF0FF33BB61BB691846E1
:103EB0002037BD4680BD80B588B000AFF860B960DE
:103EC0007A603B603B6B1A6B7B6803F18043013B7C
:103ED0009B001344BB61BB6923F00703BB61BB6953
:103EE00003F00703002B09D04FF0500383F3118830
:103EF000BFF36F8FBFF34F8F7B61FEE70023FB6142
:103F000012E0BA68FB69134419783A6BFB691344F1
:103F100034330A461A70BA68FB6913441B78002BC5
:103F200006D0FB690133FB61FB690F2BE9D900E087
:103F300000BF3B6B002283F84320BB6A062B01D9EC
:103F40000623BB623B6BBA6ADA623B6BBA6A5A649D
:103F50003B6B00229A643B6B04331846FFF70EFA62
:103F60003B6B18331846FFF709FA3B6B3A6B1A6143
:103F7000BB6AC3F107023B6B9A613B6B3A6B5A62B7
:103F80003B6B0022DA643B6B002283F850203A68D6
:103F9000F968B86901F074F902463B6B1A60FB6A74
:103FA000002B02D0FB6A3A6B1A6000BF2037BD4677
:103FB00080BD000080B582B000AF786001F032FAB9
:103FC0002A4B1B680133294A1360294B1B68002BBD
:103FD00009D1274A7B681360244B1B68012B10D141
:103FE00000F0F4FB0DE0234B1B68002B09D1204BA4
:103FF0001B68DA6A7B68DB6A9A4202D81C4A7B68D3
:1040000013601D4B1B6801331B4A13607B68DB6A1E
:1040100001229A40194B1B681343184A13607B68AE
:10402000DA6A13469B0013449B00154A1A447B68C6
:10403000043319461046FFF7ADF901F021FA0D4B94
:104040001B68002B0ED00A4B1B68DA6A7B68DB6AA0
:104050009A4207D20B4B4FF080521A60BFF34F8F3A
:10406000BFF36F8F00BF0837BD4680BD2C01002015
:104070002C000020380100204801002034010020DD
:104080003000002004ED00E080B584B000AF78601F
:104090000023FB607B68002B16D0134B1B68002BA2
:1040A00009D04FF0500383F31188BFF36F8FBFF334
:1040B0004F8FBB60FEE700F067F80021786800F0E2
:1040C00061FD00F06FF8F860FB68002B07D1074B2B
:1040D0004FF080521A60BFF34F8FBFF36F8F00BF56
:1040E0001037BD4680BD00BF5401002004ED00E044
:1040F00080B586B002AF1E4B0193002300930023CE
:1041000080221C491C48FFF795FEF860FB68012BD4
:1041100002D100F09DFDF860FB68012B15D14FF036
:10412000500383F31188BFF36F8FBFF34F8FBB60D2
:10413000124B4FF0FF321A60114B01221A60114BE3
:1041400000221A6001F010F90DE0FB68B3F1FF3FA7
:1041500009D14FF0500383F31188BFF36F8FBFF382
:104160004F8F7B60FEE700BF1037BD4680BD00BFAC
:1041700050010020587300089D4700084C010020A2
:10418000380100203001002080B400AF044B1B68D0
:104190000133034A136000BFBD4680BC704700BFB7
:1041A0005401002080B584B000AF0023FB600023E1
:1041B000BB60414B1B68002B09D14FF0500383F3C8
:1041C0001188BFF36F8FBFF34F8F3B60FEE701F0A5
:1041D00029F9394B1B68013B374A1360364B1B6882
:1041E000002B61D1354B1B68002B5DD02EE0344B8A
:1041F000DB68DB68FB60FB6818331846FFF725F9BE
:10420000FB6804331846FFF720F9FB68DB6A0122DC
:104210009A402C4B1B6813432A4A1360FB68DA6AE6
:1042200013469B0013449B00274A1A44FB6804333F
:1042300019461046FFF7AEF8FB68DA6A234B1B6895
:10424000DB6A9A4202D3224B01221A601C4B1B6884
:10425000002BCCD1FB68002B01D000F043FB1D4BA1
:104260001B687B607B68002B10D000F045F803468C
:10427000002B02D0164B01221A607B68013B7B6049
:104280007B68002BF1D1134B00221A60104B1B6886
:10429000002B09D00123BB600F4B4FF080521A60F6
:1042A000BFF34F8FBFF36F8F01F0EAF8BB6818467A
:1042B0001037BD4680BD00BF540100202C010020F6
:1042C000EC00002034010020300000202C000020F1
:1042D000400100203C01002004ED00E080B483B0E8
:1042E00000AF044B1B687B607B6818460C37BD46EB
:1042F00080BC70473001002080B586B000AF00233D
:104300007B61504B1B68002B40F08C804E4B1B6830
:1043100001333B614C4A3B6913603B69002B1FD161
:104320004A4B1B681B68002B09D04FF0500383F3E6
:104330001188BFF36F8FBFF34F8F3B60FEE7434B96
:104340001B68FB60424B1B68404A1360404AFB6895
:104350001360404B1B6801333E4A136000F0C2FA01
:104360003D4B1B683A699A424DD3384B1B681B681A
:10437000002B01D1012300E00023002B04D0364B99
:104380004FF0FF321A603EE0304B1B68DB68DB68A1
:10439000BB60BB685B687B603A697B689A4203D20A
:1043A0002D4A7B6813602EE0BB6804331846FFF784
:1043B0004CF8BB689B6A002B04D0BB6818331846C6
:1043C000FFF743F8BB68DB6A01229A40234B1B6866
:1043D0001343224A1360BB68DA6A13469B001344F6
:1043E0009B001F4A1A44BB68043319461046FEF767
:1043F000D1FFBB68DA6A1B4B1B68DB6A9A42B4D3F5
:1044000001237B61B1E7174B1B68DA6A1449134635
:104410009B0013449B000B441B68012B07D901230D
:104420007B6104E0104B1B6801330F4A13600F4B94
:104430001B68002B01D001237B617B69184618376C
:10444000BD4680BD5401002030010020E400002062
:10445000E8000020440100204C010020340100202D
:10446000300000202C0000203C01002040010020F2
:1044700080B487B000AF264B1B68002B03D0254BC0
:1044800001221A603EE0234B00221A60224B1B6877
:10449000FB60FB68B3FA83F3FB72FB7AC3F11F0383
:1044A0007B611E497A6913469B0013449B000B44B1
:1044B0001B68002B09D14FF0500383F31188BFF321
:1044C0006F8FBFF34F8F7B60FEE77A6913469B00C7
:1044D00013449B00114A13443B613B695B685A6873
:1044E0003B695A603B695A683B6908339A4204D178
:1044F0003B695B685A683B695A603B695B68DB688B
:10450000074A136000BF1C37BD4680BC704700BF20
:104510005401002040010020340100203000002020
:104520002C00002080B584B000AF786039607B68D3
:10453000002B09D14FF0500383F31188BFF36F8F25
:10454000BFF34F8FFB60FEE7074B1B68183319461C
:104550007868FEF742FF0121386800F013FB00BFC6
:104560001037BD4680BD00BF2C00002080B586B04E
:1045700000AFF860B9607A60FB68002B09D14FF09A
:10458000500383F31188BFF36F8FBFF34F8F7B61AD
:10459000FEE70A4B1B6818331946F868FEF7FAFE67
:1045A0007B68002B02D04FF0FF33BB607968B8689E
:1045B00000F0E8FA00BF1837BD4680BD2C0000208F
:1045C00080B586B000AF78607B68DB68DB683B61F4
:1045D0003B69002B09D14FF0500383F31188BFF3DF
:1045E0006F8FBFF34F8FFB60FEE73B6918331846B0
:1045F000FEF72BFF1D4B1B68002B1CD13B690433BE
:104600001846FEF722FF3B69DB6A01229A40184BED
:104610001B681343164A13603B69DA6A13469B0012
:1046200013449B00134A1A443B690433194610464D
:10463000FEF7B0FE05E03B69183319460E48FEF759
:10464000A9FE3B69DA6A0D4B1B68DB6A9A4205D901
:1046500001237B610A4B01221A6001E000237B6188
:104660007B6918461837BD4680BD00BF5401002045
:104670003401002030000020EC0000202C0000203D
:104680004001002080B485B000AF78607B68002BCB
:1046900009D14FF0500383F31188BFF36F8FBFF33D
:1046A0004F8FFB60FEE7064B1A687B681A60054B6C
:1046B0001A687B685A6000BF1437BD4680BC7047DB
:1046C000440100203001002080B586B000AF786042
:1046D00039607B68002B09D14FF0500383F31188B8
:1046E000BFF36F8FBFF34F8FFB60FEE73B68002B7C
:1046F00009D14FF0500383F31188BFF36F8FBFF3DD
:104700004F8FBB60FEE700F08DFE1C4B1B683B61CA
:104710003B681B68B3F1FF3F02D100237B6126E0B9
:104720007B681A68164B1B689A4207D07B685B68E7
:104730003A699A4202D301237B6118E07B685B6887
:104740003A69D21A3B681B689A420ED23B681A68D3
:104750007B6859683B69CB1A1A443B681A607868D1
:10476000FFF790FF00237B6101E001237B6100F0F4
:1047700087FE7B6918461837BD4680BD3001002092
:104780004401002080B400AF034B01221A6000BF37
:10479000BD4680BC704700BF4001002080B582B09C
:1047A00000AF786000F052F8064B1B68012BF9D976
:1047B000054B4FF080521A60BFF34F8FBFF36F8FDE
:1047C000F0E700BF3000002004ED00E080B582B0CB
:1047D00000AF00237B600CE07A6813469B00134413
:1047E0009B00124A13441846FEF7A9FD7B6801336B
:1047F0007B607B68062BEFD90D48FEF7A0FD0D48C6
:10480000FEF79DFD0C48FEF79AFD0C48FEF797FD5C
:104810000B48FEF794FD0B4B054A1A600A4B054AFC
:104820001A6000BF0837BD4680BD00BF30000020C1
:10483000BC000020D0000020EC000020000100207F
:1048400018010020E4000020E800002080B582B0BC
:1048500000AF28E0FFF798FC174B1B68002B0CBF3C
:1048600001230023DBB27B60FFF79CFC7B68002BFD
:1048700019D100F0D7FD104BDB68DB683B603B686B
:1048800004331846FEF7E1FD0C4B1B68013B0B4A55
:1048900013600B4B1B68013B094A136000F0F0FDED
:1048A000386800F00FF8064B1B68002BD2D100BF10
:1048B0000837BD4680BD00BF000100202C0100204C
:1048C0001401002080B582B000AF78607B681B6B5C
:1048D000184600F059FF786800F056FF00BF08370F
:1048E000BD4680BD80B483B000AF0E4B1B681B6813
:1048F000002B01D1012300E00023002B04D00A4B40
:104900004FF0FF321A6008E0064B1B68DB68DB687B
:104910007B607B685B68044A136000BF0C37BD4650
:1049200080BC7047E40000204C01002080B483B0BC
:1049300000AF0B4B1B68002B02D101237B6008E00A
:10494000084B1B68002B02D102237B6001E000238F
:104950007B607B6818460C37BD4680BC704700BF43
:10496000380100205401002080B584B000AF786089
:104970007B68FB607B68002B62D0FB68DA6A324B95
:104980001B68DB6A9A425BD2FB689B69002B06DBE3
:104990002D4B1B68DB6AC3F10702FB689A61FB6859
:1049A0005969FB68DA6A13469B0013449B00274A47
:1049B0001344994201D1012300E00023002B3AD097
:1049C000FB6804331846FEF740FD0346002B15D163
:1049D000FB68DA6A1D4913469B0013449B000B4495
:1049E0001B68002B0AD1FB68DB6A012202FA03F381
:1049F000DA43174B1B681340154A1360124B1B68B0
:104A0000DA6AFB68DA62FB68DB6A01229A40104BC3
:104A10001B6813430E4A1360FB68DA6A13469B0057
:104A200013449B00094A1A44FB6804331946104694
:104A3000FEF7B0FC04E0044B1B68DA6AFB68DA623C
:104A400000BF1037BD4680BD2C0000203000002084
:104A50003401002080B586B000AF78607B683B6190
:104A600000237B617B68002B6CD0394B1B683A6953
:104A70009A4209D04FF0500383F31188BFF36F8F30
:104A8000BFF34F8FFB60FEE73B699B6C002B09D1A6
:104A90004FF0500383F31188BFF36F8FBFF34F8F35
:104AA000BB60FEE73B699B6C5A1E3B699A643B699D
:104AB000DA6A3B695B6C9A4244D03B699B6C002B81
:104AC00040D13B6904331846FEF7BFFC0346002B78
:104AD00015D13B69DA6A1F4913469B0013449B00BA
:104AE0000B441B68002B0AD13B69DB6A012202FAE6
:104AF00003F3DA43184B1B681340174A13603B69F2
:104B00005A6C3B69DA623B69DB6AC3F107023B69B5
:104B10009A613B69DB6A01229A400F4B1B68134381
:104B20000D4A13603B69DA6A13469B0013449B00ED
:104B3000084A1A443B69043319461046FEF72AFC1A
:104B400001237B617B6918461837BD4680BD00BFD5
:104B50002C000020300000203401002080B400AF81
:104B6000074B1B68002B04D0054B1B689A6C013265
:104B70009A64034B1B681846BD4680BC704700BF53
:104B80002C00002080B584B000AF78603960294BDC
:104B90001B68FB60284B1B6804331846FEF755FC66
:104BA0000346002B0BD1244B1B68DB6A012202FA5F
:104BB00003F3DA43214B1B681340204A13607B68E0
:104BC000B3F1FF3F0AD13B68002B07D01A4B1B689B
:104BD000043319461A48FEF7DDFB26E0FA687B68C5
:104BE0001344BB60144B1B68BA685A60BA68FB6810
:104BF0009A4209D2134B1A680F4B1B6804331946AB
:104C00001046FEF7EAFB10E00F4B1A680A4B1B68D0
:104C1000043319461046FEF7E0FB0C4B1B68BA68DC
:104C20009A4202D2094ABB68136000BF1037BD46E2
:104C300080BD00BF300100202C0000203401002086
:104C400018010020E8000020E40000204C010020B2
:104C500080B584B002AF00237B6000F0DBFA104B1C
:104C60001B68002B0AD00F4B0193022300930023F3
:104C700080220D490D48FFF7DDF878607B68002B36
:104C800009D14FF0500383F31188BFF36F8FBFF347
:104C90004F8F3B60FEE77B6818460837BD4680BDF6
:104CA000880100208C01002060730008654E000818
:104CB00080B588B002AFF860B9607A603B602820A8
:104CC00000F0A0FC78617B69002B09D07B6901931F
:104CD0003B6A00933B687A68B968F86800F005F8A9
:104CE0007B6918461837BD4680BD80B586B000AFD9
:104CF000F860B9607A603B60BB68002B09D14FF067
:104D0000500383F31188BFF36F8FBFF34F8F7B6125
:104D1000FEE77B6A002B15D000F07CFA7B6AFA680C
:104D20001A607B6ABA689A617B6A7A68DA617B6A20
:104D30003A681A627B6A3A6A5A627B6A0433184696
:104D4000FEF71CFB00BF1837BD4680BD80B58AB09A
:104D500000AFF860B9607A603B6000237B62FB685B
:104D6000002B09D14FF0500383F31188BFF36F8FED
:104D7000BFF34F8F3B62FEE7194B1B68002B2AD015
:104D8000BB687B617B68BB61FB68FB61BB68052B13
:104D900018DCFFF7CBFD0346022B09D1104B186836
:104DA00007F1140100233A6BFEF738FC786212E039
:104DB0000B4B186807F1140100230022FEF72EFCAC
:104DC000786208E0064B186807F1140100233A687E
:104DD000FEF71EFD78627B6A18462837BD4680BD07
:104DE0008801002080B588B002AF786039601C4B24
:104DF0001B68DB68DB687B617B6904331846FEF760
:104E000024FB7B69DB69012B21D17B699A697B6873
:104E1000D1187B683A68786900F0C8F80346002B1F
:104E200015D00023009300237A6800217869FFF7EA
:104E30008DFF38613B69002B09D14FF0500383F39C
:104E40001188BFF36F8FBFF34F8FFB60FEE77B6965
:104E50005B6A7869984700BF1837BD4680BD00BFC0
:104E60008001002080B584B000AF786007F10803AE
:104E7000184600F057F8F860BB681946F86800F06B
:104E800003F800F0D5F8F1E780B584B000AF7860A2
:104E90003960FFF779F907F10803184600F066F862
:104EA000F860BB68002B30D13B68002B0AD17A68D0
:104EB000FB689A4206D8FFF775F9F9687868FFF73A
:104EC00091FF24E03B68002B08D0134B1B681B6844
:104ED000002B0CBF01230023DBB23B600F4B186893
:104EE0007A68FB68D31A3A681946FEF76FFFFFF736
:104EF00059F90346002B0AD1094B4FF080521A6032
:104F0000BFF34F8FBFF36F8F01E0FFF74BF900BF87
:104F10001037BD4680BD00BF8401002088010020FD
:104F200004ED00E080B485B000AF78600E4B1B68E4
:104F30001B68002B0CBF01230023DBB21A467B68E1
:104F40001A607B681B68002B05D1074B1B68DB6868
:104F50001B68FB6001E00023FB60FB681846143708
:104F6000BD4680BC704700BF8001002080B584B082
:104F700000AF7860FFF7B2F9F8600B4B1B68FA6876
:104F80009A4205D200F0E6F87B6801221A6002E03E
:104F90007B6800221A60044AFB681360FB681846AD
:104FA0001037BD4680BD00BF9001002080B586B09F
:104FB00000AFF860B9607A603B6000237B61FB68FA
:104FC000BA685A60FB68FA681A61BA687B689A42E4
:104FD00012D87A683B68D21AFB689B699A4202D35E
:104FE00001237B611BE0104B1A68FB6804331946F0
:104FF0001046FEF7F2F912E07A683B689A4206D250
:10500000BA683B689A4202D301237B6107E0074BF1
:105010001A68FB68043319461046FEF7DEF97B690F
:1050200018461837BD4680BD84010020800100204D
:1050300080B58CB002AF7AE0BB68002B76DB3B69B1
:105040007B627B6A5B69002B04D07B6A0433184661
:10505000FEF7FBF93B1D1846FFF788FF3862BB6877
:10506000092B64D801A252F823F000BF9550000824
:1050700095500008955000082F510008EF50000887
:105080002551000895500008955000082F51000840
:10509000EF500008FA687B6A9B69D118FB683A6A8E
:1050A000786AFFF783FF0346002B40D07B6A5B6A78
:1050B000786A98477B6ADB69012B38D1FA687B6A8A
:1050C0009B691A440023009300230021786AFFF7AC
:1050D0003DFEF861FB69002B29D14FF0500383F3AB
:1050E0001188BFF36F8FBFF34F8FBB61FEE7FA6884
:1050F0007B6A9A617B6A9B69002B09D14FF0500350
:1051000083F31188BFF36F8FBFF34F8F7B61FEE78F
:105110007B6A9A693B6AD1183B6A3A6A786AFFF7F8
:1051200045FF04E0786A00F02FFB00E000BF084B69
:10513000186807F1080100230022FEF7FDFB034673
:10514000002B7FF479AF00BF2837BD4680BD00BF7C
:105150008801002080B588B002AF44E02B4B1B686B
:10516000DB681B683B61294B1B68DB68DB68FB6005
:10517000FB6804331846FEF768F9FB685B6AF86859
:105180009847FB68DB69012B2DD1FB689B693A6965
:105190001344BB60BA683B699A420ED9FB68BA688F
:1051A0005A60FB68FA681A61184B1A68FB68043386
:1051B00019461046FEF711F915E00023009300236D
:1051C0003A690021F868FFF7C1FD78607B68002B21
:1051D00009D14FF0500383F31188BFF36F8FBFF3F2
:1051E0004F8F3B60FEE7094B1B681B68002BB5D156
:1051F000064B1B687B61064B1B68044A1360044A1C
:105200007B69136000BF1837BD4680BD8001002058
:105210008401002080B500AF00F004F9124B1B6838
:10522000002B1DD11148FEF78AF81148FEF787F8C8
:10523000104B0E4A1A60104B0D4A1A6000220C21C6
:105240000A20FEF793F90246074B1A60064B1B68CB
:10525000002B05D0044B1B6808491846FEF78EFD4D
:1052600000F00EF900BF80BD880100205801002029
:105270006C01002080010020840100206873000878
:1052800080B485B000AFF860B9607A60FB68043B19
:10529000FB60FB684FF080721A60FB68043BFB60A8
:1052A000BB6823F00102FB681A60FB68043BFB60EB
:1052B000084AFB681A60FB68143BFB607A68FB686D
:1052C0001A60FB68203BFB60FB6818461437BD463C
:1052D00080BC7047D952000880B483B000AF0C4B3B
:1052E0001B68B3F1FF3F09D04FF0500383F31188DF
:1052F000BFF36F8FBFF34F8F7B60FEE74FF050031C
:1053000083F31188BFF36F8FBFF34F8F3B60FEE7CE
:105310000800002000000000000000000000000065
:10532000074B19680868B0E8F00F80F30988BFF3ED
:105330006F8F4FF0000080F311884EF00D0E704714
:105340002C00002000BF00BF06480068006880F302
:10535000088862B661B6BFF34F8FBFF36F8F00DF6F
:1053600000BF00BF08ED00E080B584B000AF284B5F
:10537000FB60FB681B78DBB2BB60FB68FF221A7026
:10538000FB681B78DBB2FB71FB79DBB203F05003E7
:10539000DAB2204B1A70204B07221A6009E01E4B2C
:1053A0001B68013B1C4A1360FB79DBB25B00DBB27C
:1053B000FB71FB79DBB203F08003802BEFD0164B3F
:1053C0001B681B02144A1360134B1B6803F4E06351
:1053D000114A1360BB68DAB2FB681A700F4B1B6886
:1053E0000E4A43F4700313600C4B1B680B4A43F0E6
:1053F0007043136000F0B0F8094B00221A60FFF709
:10540000A3FFFFF769FF002318461037BD4680BD94
:1054100000E400E0940100209801002020ED00E06D
:105420000800002080B483B000AF4FF0500383F336
:105430001188BFF36F8FBFF34F8F7B600E4B1B68DC
:1054400001330D4A13600C4B1B68012B0ED10B4B23
:105450001B68DBB2002B09D04FF0500383F3118897
:10546000BFF36F8FBFF34F8F3B60FEE700BF0C377A
:10547000BD4680BC704700BF0800002004ED00E07E
:1054800080B483B000AF104B1B68002B09D14FF0E4
:10549000500383F31188BFF36F8FBFF34F8F7B608F
:1054A000FEE7094B1B68013B074A1360064B1B686C
:1054B000002B04D100233B603B6883F3118800BFBD
:1054C0000C37BD4680BC704708000020000000007B
:1054D000EFF30980BFF36F8F0D4B1A6820E9F00FCF
:1054E00010602DE908404FF0500080F31188FEF75E
:1054F000BFFF4FF0000080F31188BDE80840196835
:105500000868B0E8F00F80F30988BFF36F8F704729
:105510002C00002000BF00BF80B582B000AF4FF06C
:10552000500383F31188BFF36F8FBFF34F8F7B60FE
:10553000FEF7E2FE0346002B03D0064B4FF08052ED
:105540001A6000233B603B6883F3118800BF083773
:10555000BD4680BD04ED00E080B400AF074B1B6882
:10556000074AA2FB03239B09064A013B1360064B33
:1055700007221A6000BFBD4680BC70470C000020A7
:10558000D34D621014E000E010E000E080B485B07C
:1055900000AFEFF30583FB60FB680F2B13D9154AAF
:1055A000FB6813441B78FB72134B1B78FA7A9A4200
:1055B00009D24FF0500383F31188BFF36F8FBFF30D
:1055C0004F8F7B60FEE70D4B1B6803F4E0620C4BD2
:1055D0001B689A4209D94FF0500383F31188BFF337
:1055E0006F8FBFF34F8F3B60FEE700BF1437BD46A0
:1055F00080BC7047F0E300E0940100200CED00E077
:105600009801002080B58AB000AF78600023FB616C
:10561000FEF7BAFD574B1B68002B01D100F00CF9C7
:10562000554B1A687B681340002B40F08C807B68D8
:10563000002B1CD008227B6813447B607B6803F03E
:105640000703002B13D07B6823F0070308337B602C
:105650007B6803F00703002B09D04FF0500383F35E
:105660001188BFF36F8FBFF34F8F7B61FEE77B68BD
:10567000002B68D0414B1B687A689A4263D8404B34
:105680003B623F4B1B687B6204E07B6A3B627B6A48
:105690001B687B627B6A5B687A689A4203D97B6A83
:1056A0001B68002BF1D1334B1B687A6A9A424AD0AF
:1056B0003B6A1B6808221344FB617B6A1A683B6AD9
:1056C0001A607B6A5A687B68D21A08235B009A4288
:1056D0001ED97A6A7B681344BB61BB6903F0070378
:1056E000002B09D04FF0500383F31188BFF36F8F65
:1056F000BFF34F8F3B61FEE77B6A5A687B68D21A23
:10570000BB695A607B6A7A685A60B86900F0F6F83B
:105710001A4B1A687B6A5B68D31A184A1360174BD6
:105720001A68184B1B689A4203D2144B1B68154A1F
:1057300013607B6A5A68104B1B681A437B6A5A6075
:105740007B6A00221A60FEF72DFDFB6903F0070358
:10575000002B09D04FF0500383F31188BFF36F8FF4
:10576000BFF34F8FFB60FEE7FB6918462837BD4645
:1057700080BD00BFA40D0020B00D0020A80D0020AA
:105780009C0D0020AC0D002080B586B000AF786085
:105790007B687B617B68002B46D008235B427A697B
:1057A00013447B617B693B613B695A68204B1B68F2
:1057B0001340002B09D14FF0500383F31188BFF33E
:1057C0006F8FBFF34F8FFB60FEE73B691B68002BB9
:1057D00009D04FF0500383F31188BFF36F8FBFF3ED
:1057E0004F8FBB60FEE73B695A68114B1B68134043
:1057F000002B19D03B691B68002B15D13B695A68F7
:105800000B4B1B68DB431A403B695A60FEF7BCFC3C
:105810003B695A68074B1B681344064A1360386992
:1058200000F06CF8FEF7BEFC00BF1837BD4680BD27
:10583000B00D0020A80D002080B485B000AF4FF45B
:105840004063BB60274BFB60FB6803F00703002B42
:105850000CD0FB680733FB60FB6823F00703FB6099
:10586000BA68FB68D31A1F4A1344BB60FB687B60AD
:105870001D4A7B6813601C4B00225A607B68BA6823
:105880001344FB600822FB689B1AFB60FB6823F053
:105890000703FB60FB68154A1360144B1B6800226A
:1058A0005A60124B1B6800221A607B683B603B68A1
:1058B000FA68D21A3B685A600C4B1A683B681A6047
:1058C0003B685B680A4A13603B685B68094A13607F
:1058D000094B4FF000421A6000BF1437BD4680BC30
:1058E000704700BF9C0100209C0D0020A40D0020EB
:1058F000AC0D0020A80D0020B00D002080B485B0B4
:1059000000AF7860274BFB6002E0FB681B68FB6020
:10591000FB681B687A689A42F7D8FB68BB60FB6833
:105920005B68BA6813447A689A4208D1FB685A687F
:105930007B685B681A44FB685A60FB687B607B6825
:10594000BB607B685B68BA681A44FB681B689A4254
:1059500018D1FB681A68144B1B689A420DD07B68FB
:105960005A68FB681B685B681A447B685A60FB686E
:105970001B681A687B681A6008E00B4B1A687B6822
:105980001A6003E0FB681A687B681A60FA687B6833
:105990009A4202D0FB687A681A6000BF1437BD468D
:1059A00080BC70479C0D0020A40D002080B485B001
:1059B00000AF78600023FB737B681B78002B01D05D
:1059C0000123FB73FB7B18461437BD4680BC704730
:1059D00080B485B000AF78600023FB817B681B78C2
:1059E0009AB2FB891343FB817B6801331B781B024E
:1059F0001AB2B7F90E3013431BB2FB81FB8918466C
:105A00001437BD4680BC704780B400AF094B1B689B
:105A100000225A62084B1B6800225A62074B1B681F
:105A200000225A62064B1B6800225A6200BFBD4624
:105A300080BC7047000E0020F80F0020B80F002037
:105A4000400E002080B500AF0648FBF724FD064855
:105A5000FBF721FD0548FBF71EFD0548FBF71BFD85
:105A600000BF80BDF80F0020400E0020000E002077
:105A7000B80F002080B500AF0248FBF7F2FC00BF72
:105A800080BD00BFB80F002080B584B000AF0346D2
:105A90000A46FB711346BB71FFF7D4FF874B1B68A7
:105AA000FB60FB79012B79D1854ABB791370BB79F7
:105AB000012B46D100218148FBF766FD00217F487C
:105AC000FCF7D6FC7E4B5B78DBB2012B03D10421C3
:105AD0007C48FBF759FD7A4B9B78DBB2012B07D151
